{
	"day7.sol": {
		"Day7": {
			"abi": [
				{
					"inputs": [],
					"stateMutability": "nonpayable",
					"type": "constructor"
				},
				{
					"inputs": [],
					"name": "getAddress",
					"outputs": [
						{
							"internalType": "address",
							"name": "",
							"type": "address"
						}
					],
					"stateMutability": "view",
					"type": "function"
				},
				{
					"inputs": [],
					"name": "getOwner",
					"outputs": [
						{
							"internalType": "address",
							"name": "",
							"type": "address"
						}
					],
					"stateMutability": "view",
					"type": "function"
				},
				{
					"inputs": [],
					"name": "getTomorrowUnixTimestamp",
					"outputs": [
						{
							"internalType": "uint256",
							"name": "",
							"type": "uint256"
						}
					],
					"stateMutability": "view",
					"type": "function"
				}
			],
			"devdoc": {
				"kind": "dev",
				"methods": {},
				"version": 1
			},
			"evm": {
				"assembly": "    /* \"day7.sol\":57:583  contract Day7 {... */\n  mstore(0x40, 0x80)\n    /* \"day7.sol\":187:283  constructor() {... */\n  callvalue\n  dup1\n  iszero\n  tag_1\n  jumpi\n  0x00\n  dup1\n  revert\ntag_1:\n  pop\n    /* \"day7.sol\":219:229  msg.sender */\n  caller\n    /* \"day7.sol\":211:216  owner */\n  0x00\n  dup1\n    /* \"day7.sol\":211:229  owner = msg.sender */\n  0x0100\n  exp\n  dup2\n  sload\n  dup2\n  0xffffffffffffffffffffffffffffffffffffffff\n  mul\n  not\n  and\n  swap1\n  dup4\n  0xffffffffffffffffffffffffffffffffffffffff\n  and\n  mul\n  or\n  swap1\n  sstore\n  pop\n    /* \"day7.sol\":256:266  msg.sender */\n  caller\n    /* \"day7.sol\":247:266  owner == msg.sender */\n  0xffffffffffffffffffffffffffffffffffffffff\n  and\n    /* \"day7.sol\":247:252  owner */\n  0x00\n  dup1\n  sload\n  swap1\n  0x0100\n  exp\n  swap1\n  div\n  0xffffffffffffffffffffffffffffffffffffffff\n  and\n    /* \"day7.sol\":247:266  owner == msg.sender */\n  0xffffffffffffffffffffffffffffffffffffffff\n  and\n  eq\n    /* \"day7.sol\":239:276  require(owner == msg.sender, \"Error\") */\n  tag_4\n  jumpi\n  mload(0x40)\n  0x08c379a000000000000000000000000000000000000000000000000000000000\n  dup2\n  mstore\n  0x04\n  add\n  tag_5\n  swap1\n  tag_6\n  jump\t// in\ntag_5:\n  mload(0x40)\n  dup1\n  swap2\n  sub\n  swap1\n  revert\ntag_4:\n    /* \"day7.sol\":57:583  contract Day7 {... */\n  jump(tag_7)\n    /* \"#utility.yul\":7:372   */\ntag_9:\n    /* \"#utility.yul\":149:152   */\n  0x00\n    /* \"#utility.yul\":170:236   */\n  tag_11\n    /* \"#utility.yul\":234:235   */\n  0x05\n    /* \"#utility.yul\":229:232   */\n  dup4\n    /* \"#utility.yul\":170:236   */\n  tag_12\n  jump\t// in\ntag_11:\n    /* \"#utility.yul\":163:236   */\n  swap2\n  pop\n    /* \"#utility.yul\":245:338   */\n  tag_13\n    /* \"#utility.yul\":334:337   */\n  dup3\n    /* \"#utility.yul\":245:338   */\n  tag_14\n  jump\t// in\ntag_13:\n    /* \"#utility.yul\":363:365   */\n  0x20\n    /* \"#utility.yul\":358:361   */\n  dup3\n    /* \"#utility.yul\":354:366   */\n  add\n    /* \"#utility.yul\":347:366   */\n  swap1\n  pop\n    /* \"#utility.yul\":7:372   */\n  swap2\n  swap1\n  pop\n  jump\t// out\n    /* \"#utility.yul\":378:797   */\ntag_6:\n    /* \"#utility.yul\":544:548   */\n  0x00\n    /* \"#utility.yul\":582:584   */\n  0x20\n    /* \"#utility.yul\":571:580   */\n  dup3\n    /* \"#utility.yul\":567:585   */\n  add\n    /* \"#utility.yul\":559:585   */\n  swap1\n  pop\n    /* \"#utility.yul\":631:640   */\n  dup2\n    /* \"#utility.yul\":625:629   */\n  dup2\n    /* \"#utility.yul\":621:641   */\n  sub\n    /* \"#utility.yul\":617:618   */\n  0x00\n    /* \"#utility.yul\":606:615   */\n  dup4\n    /* \"#utility.yul\":602:619   */\n  add\n    /* \"#utility.yul\":595:642   */\n  mstore\n    /* \"#utility.yul\":659:790   */\n  tag_16\n    /* \"#utility.yul\":785:789   */\n  dup2\n    /* \"#utility.yul\":659:790   */\n  tag_9\n  jump\t// in\ntag_16:\n    /* \"#utility.yul\":651:790   */\n  swap1\n  pop\n    /* \"#utility.yul\":378:797   */\n  swap2\n  swap1\n  pop\n  jump\t// out\n    /* \"#utility.yul\":803:972   */\ntag_12:\n    /* \"#utility.yul\":887:898   */\n  0x00\n    /* \"#utility.yul\":921:927   */\n  dup3\n    /* \"#utility.yul\":916:919   */\n  dup3\n    /* \"#utility.yul\":909:928   */\n  mstore\n    /* \"#utility.yul\":961:965   */\n  0x20\n    /* \"#utility.yul\":956:959   */\n  dup3\n    /* \"#utility.yul\":952:966   */\n  add\n    /* \"#utility.yul\":937:966   */\n  swap1\n  pop\n    /* \"#utility.yul\":803:972   */\n  swap3\n  swap2\n  pop\n  pop\n  jump\t// out\n    /* \"#utility.yul\":978:1133   */\ntag_14:\n    /* \"#utility.yul\":1118:1125   */\n  0x4572726f72000000000000000000000000000000000000000000000000000000\n    /* \"#utility.yul\":1114:1115   */\n  0x00\n    /* \"#utility.yul\":1106:1112   */\n  dup3\n    /* \"#utility.yul\":1102:1116   */\n  add\n    /* \"#utility.yul\":1095:1126   */\n  mstore\n    /* \"#utility.yul\":978:1133   */\n  pop\n  jump\t// out\n    /* \"day7.sol\":57:583  contract Day7 {... */\ntag_7:\n  dataSize(sub_0)\n  dup1\n  dataOffset(sub_0)\n  0x00\n  codecopy\n  0x00\n  return\nstop\n\nsub_0: assembly {\n        /* \"day7.sol\":57:583  contract Day7 {... */\n      mstore(0x40, 0x80)\n      callvalue\n      dup1\n      iszero\n      tag_1\n      jumpi\n      0x00\n      dup1\n      revert\n    tag_1:\n      pop\n      jumpi(tag_2, lt(calldatasize, 0x04))\n      shr(0xe0, calldataload(0x00))\n      dup1\n      0x38cc4831\n      eq\n      tag_3\n      jumpi\n      dup1\n      0x893d20e8\n      eq\n      tag_4\n      jumpi\n      dup1\n      0xc4f29d71\n      eq\n      tag_5\n      jumpi\n    tag_2:\n      0x00\n      dup1\n      revert\n        /* \"day7.sol\":496:581  function getAddress() public view returns(address) {... */\n    tag_3:\n      tag_6\n      tag_7\n      jump\t// in\n    tag_6:\n      mload(0x40)\n      tag_8\n      swap2\n      swap1\n      tag_9\n      jump\t// in\n    tag_8:\n      mload(0x40)\n      dup1\n      swap2\n      sub\n      swap1\n      return\n        /* \"day7.sol\":289:367  function getOwner() public view returns(address) {... */\n    tag_4:\n      tag_10\n      tag_11\n      jump\t// in\n    tag_10:\n      mload(0x40)\n      tag_12\n      swap2\n      swap1\n      tag_9\n      jump\t// in\n    tag_12:\n      mload(0x40)\n      dup1\n      swap2\n      sub\n      swap1\n      return\n        /* \"day7.sol\":373:490  function getTomorrowUnixTimestamp() public isOnwer view returns(uint) {... */\n    tag_5:\n      tag_13\n      tag_14\n      jump\t// in\n    tag_13:\n      mload(0x40)\n      tag_15\n      swap2\n      swap1\n      tag_16\n      jump\t// in\n    tag_15:\n      mload(0x40)\n      dup1\n      swap2\n      sub\n      swap1\n      return\n        /* \"day7.sol\":496:581  function getAddress() public view returns(address) {... */\n    tag_7:\n        /* \"day7.sol\":538:545  address */\n      0x00\n        /* \"day7.sol\":564:574  msg.sender */\n      caller\n        /* \"day7.sol\":557:574  return msg.sender */\n      swap1\n      pop\n        /* \"day7.sol\":496:581  function getAddress() public view returns(address) {... */\n      swap1\n      jump\t// out\n        /* \"day7.sol\":289:367  function getOwner() public view returns(address) {... */\n    tag_11:\n        /* \"day7.sol\":329:336  address */\n      0x00\n        /* \"day7.sol\":355:360  owner */\n      dup1\n      0x00\n      swap1\n      sload\n      swap1\n      0x0100\n      exp\n      swap1\n      div\n      0xffffffffffffffffffffffffffffffffffffffff\n      and\n        /* \"day7.sol\":348:360  return owner */\n      swap1\n      pop\n        /* \"day7.sol\":289:367  function getOwner() public view returns(address) {... */\n      swap1\n      jump\t// out\n        /* \"day7.sol\":373:490  function getTomorrowUnixTimestamp() public isOnwer view returns(uint) {... */\n    tag_14:\n        /* \"day7.sol\":437:441  uint */\n      0x00\n        /* \"day7.sol\":143:153  msg.sender */\n      caller\n        /* \"day7.sol\":134:153  owner == msg.sender */\n      0xffffffffffffffffffffffffffffffffffffffff\n      and\n        /* \"day7.sol\":134:139  owner */\n      0x00\n      dup1\n      sload\n      swap1\n      0x0100\n      exp\n      swap1\n      div\n      0xffffffffffffffffffffffffffffffffffffffff\n      and\n        /* \"day7.sol\":134:153  owner == msg.sender */\n      0xffffffffffffffffffffffffffffffffffffffff\n      and\n      eq\n        /* \"day7.sol\":126:163  require(owner == msg.sender, \"Error\") */\n      tag_20\n      jumpi\n      mload(0x40)\n      0x08c379a000000000000000000000000000000000000000000000000000000000\n      dup2\n      mstore\n      0x04\n      add\n      tag_21\n      swap1\n      tag_22\n      jump\t// in\n    tag_21:\n      mload(0x40)\n      dup1\n      swap2\n      sub\n      swap1\n      revert\n    tag_20:\n        /* \"day7.sol\":478:483  86400 */\n      0x015180\n        /* \"day7.sol\":460:475  block.timestamp */\n      timestamp\n        /* \"day7.sol\":460:483  block.timestamp + 86400 */\n      tag_24\n      swap2\n      swap1\n      tag_25\n      jump\t// in\n    tag_24:\n        /* \"day7.sol\":453:483  return block.timestamp + 86400 */\n      swap1\n      pop\n        /* \"day7.sol\":373:490  function getTomorrowUnixTimestamp() public isOnwer view returns(uint) {... */\n      swap1\n      jump\t// out\n        /* \"#utility.yul\":7:125   */\n    tag_27:\n        /* \"#utility.yul\":94:118   */\n      tag_29\n        /* \"#utility.yul\":112:117   */\n      dup2\n        /* \"#utility.yul\":94:118   */\n      tag_30\n      jump\t// in\n    tag_29:\n        /* \"#utility.yul\":89:92   */\n      dup3\n        /* \"#utility.yul\":82:119   */\n      mstore\n        /* \"#utility.yul\":7:125   */\n      pop\n      pop\n      jump\t// out\n        /* \"#utility.yul\":131:496   */\n    tag_31:\n        /* \"#utility.yul\":273:276   */\n      0x00\n        /* \"#utility.yul\":294:360   */\n      tag_33\n        /* \"#utility.yul\":358:359   */\n      0x05\n        /* \"#utility.yul\":353:356   */\n      dup4\n        /* \"#utility.yul\":294:360   */\n      tag_34\n      jump\t// in\n    tag_33:\n        /* \"#utility.yul\":287:360   */\n      swap2\n      pop\n        /* \"#utility.yul\":369:462   */\n      tag_35\n        /* \"#utility.yul\":458:461   */\n      dup3\n        /* \"#utility.yul\":369:462   */\n      tag_36\n      jump\t// in\n    tag_35:\n        /* \"#utility.yul\":487:489   */\n      0x20\n        /* \"#utility.yul\":482:485   */\n      dup3\n        /* \"#utility.yul\":478:490   */\n      add\n        /* \"#utility.yul\":471:490   */\n      swap1\n      pop\n        /* \"#utility.yul\":131:496   */\n      swap2\n      swap1\n      pop\n      jump\t// out\n        /* \"#utility.yul\":502:620   */\n    tag_37:\n        /* \"#utility.yul\":589:613   */\n      tag_39\n        /* \"#utility.yul\":607:612   */\n      dup2\n        /* \"#utility.yul\":589:613   */\n      tag_40\n      jump\t// in\n    tag_39:\n        /* \"#utility.yul\":584:587   */\n      dup3\n        /* \"#utility.yul\":577:614   */\n      mstore\n        /* \"#utility.yul\":502:620   */\n      pop\n      pop\n      jump\t// out\n        /* \"#utility.yul\":626:848   */\n    tag_9:\n        /* \"#utility.yul\":719:723   */\n      0x00\n        /* \"#utility.yul\":757:759   */\n      0x20\n        /* \"#utility.yul\":746:755   */\n      dup3\n        /* \"#utility.yul\":742:760   */\n      add\n        /* \"#utility.yul\":734:760   */\n      swap1\n      pop\n        /* \"#utility.yul\":770:841   */\n      tag_42\n        /* \"#utility.yul\":838:839   */\n      0x00\n        /* \"#utility.yul\":827:836   */\n      dup4\n        /* \"#utility.yul\":823:840   */\n      add\n        /* \"#utility.yul\":814:820   */\n      dup5\n        /* \"#utility.yul\":770:841   */\n      tag_27\n      jump\t// in\n    tag_42:\n        /* \"#utility.yul\":626:848   */\n      swap3\n      swap2\n      pop\n      pop\n      jump\t// out\n        /* \"#utility.yul\":854:1273   */\n    tag_22:\n        /* \"#utility.yul\":1020:1024   */\n      0x00\n        /* \"#utility.yul\":1058:1060   */\n      0x20\n        /* \"#utility.yul\":1047:1056   */\n      dup3\n        /* \"#utility.yul\":1043:1061   */\n      add\n        /* \"#utility.yul\":1035:1061   */\n      swap1\n      pop\n        /* \"#utility.yul\":1107:1116   */\n      dup2\n        /* \"#utility.yul\":1101:1105   */\n      dup2\n        /* \"#utility.yul\":1097:1117   */\n      sub\n        /* \"#utility.yul\":1093:1094   */\n      0x00\n        /* \"#utility.yul\":1082:1091   */\n      dup4\n        /* \"#utility.yul\":1078:1095   */\n      add\n        /* \"#utility.yul\":1071:1118   */\n      mstore\n        /* \"#utility.yul\":1135:1266   */\n      tag_44\n        /* \"#utility.yul\":1261:1265   */\n      dup2\n        /* \"#utility.yul\":1135:1266   */\n      tag_31\n      jump\t// in\n    tag_44:\n        /* \"#utility.yul\":1127:1266   */\n      swap1\n      pop\n        /* \"#utility.yul\":854:1273   */\n      swap2\n      swap1\n      pop\n      jump\t// out\n        /* \"#utility.yul\":1279:1501   */\n    tag_16:\n        /* \"#utility.yul\":1372:1376   */\n      0x00\n        /* \"#utility.yul\":1410:1412   */\n      0x20\n        /* \"#utility.yul\":1399:1408   */\n      dup3\n        /* \"#utility.yul\":1395:1413   */\n      add\n        /* \"#utility.yul\":1387:1413   */\n      swap1\n      pop\n        /* \"#utility.yul\":1423:1494   */\n      tag_46\n        /* \"#utility.yul\":1491:1492   */\n      0x00\n        /* \"#utility.yul\":1480:1489   */\n      dup4\n        /* \"#utility.yul\":1476:1493   */\n      add\n        /* \"#utility.yul\":1467:1473   */\n      dup5\n        /* \"#utility.yul\":1423:1494   */\n      tag_37\n      jump\t// in\n    tag_46:\n        /* \"#utility.yul\":1279:1501   */\n      swap3\n      swap2\n      pop\n      pop\n      jump\t// out\n        /* \"#utility.yul\":1507:1676   */\n    tag_34:\n        /* \"#utility.yul\":1591:1602   */\n      0x00\n        /* \"#utility.yul\":1625:1631   */\n      dup3\n        /* \"#utility.yul\":1620:1623   */\n      dup3\n        /* \"#utility.yul\":1613:1632   */\n      mstore\n        /* \"#utility.yul\":1665:1669   */\n      0x20\n        /* \"#utility.yul\":1660:1663   */\n      dup3\n        /* \"#utility.yul\":1656:1670   */\n      add\n        /* \"#utility.yul\":1641:1670   */\n      swap1\n      pop\n        /* \"#utility.yul\":1507:1676   */\n      swap3\n      swap2\n      pop\n      pop\n      jump\t// out\n        /* \"#utility.yul\":1682:1987   */\n    tag_25:\n        /* \"#utility.yul\":1722:1725   */\n      0x00\n        /* \"#utility.yul\":1741:1761   */\n      tag_49\n        /* \"#utility.yul\":1759:1760   */\n      dup3\n        /* \"#utility.yul\":1741:1761   */\n      tag_40\n      jump\t// in\n    tag_49:\n        /* \"#utility.yul\":1736:1761   */\n      swap2\n      pop\n        /* \"#utility.yul\":1775:1795   */\n      tag_50\n        /* \"#utility.yul\":1793:1794   */\n      dup4\n        /* \"#utility.yul\":1775:1795   */\n      tag_40\n      jump\t// in\n    tag_50:\n        /* \"#utility.yul\":1770:1795   */\n      swap3\n      pop\n        /* \"#utility.yul\":1929:1930   */\n      dup3\n        /* \"#utility.yul\":1861:1927   */\n      0xffffffffffffffffffffffffffffffffffffffffffffffffffffffffffffffff\n        /* \"#utility.yul\":1857:1931   */\n      sub\n        /* \"#utility.yul\":1854:1855   */\n      dup3\n        /* \"#utility.yul\":1851:1932   */\n      gt\n        /* \"#utility.yul\":1848:1955   */\n      iszero\n      tag_51\n      jumpi\n        /* \"#utility.yul\":1935:1953   */\n      tag_52\n      tag_53\n      jump\t// in\n    tag_52:\n        /* \"#utility.yul\":1848:1955   */\n    tag_51:\n        /* \"#utility.yul\":1979:1980   */\n      dup3\n        /* \"#utility.yul\":1976:1977   */\n      dup3\n        /* \"#utility.yul\":1972:1981   */\n      add\n        /* \"#utility.yul\":1965:1981   */\n      swap1\n      pop\n        /* \"#utility.yul\":1682:1987   */\n      swap3\n      swap2\n      pop\n      pop\n      jump\t// out\n        /* \"#utility.yul\":1993:2089   */\n    tag_30:\n        /* \"#utility.yul\":2030:2037   */\n      0x00\n        /* \"#utility.yul\":2059:2083   */\n      tag_55\n        /* \"#utility.yul\":2077:2082   */\n      dup3\n        /* \"#utility.yul\":2059:2083   */\n      tag_56\n      jump\t// in\n    tag_55:\n        /* \"#utility.yul\":2048:2083   */\n      swap1\n      pop\n        /* \"#utility.yul\":1993:2089   */\n      swap2\n      swap1\n      pop\n      jump\t// out\n        /* \"#utility.yul\":2095:2221   */\n    tag_56:\n        /* \"#utility.yul\":2132:2139   */\n      0x00\n        /* \"#utility.yul\":2172:2214   */\n      0xffffffffffffffffffffffffffffffffffffffff\n        /* \"#utility.yul\":2165:2170   */\n      dup3\n        /* \"#utility.yul\":2161:2215   */\n      and\n        /* \"#utility.yul\":2150:2215   */\n      swap1\n      pop\n        /* \"#utility.yul\":2095:2221   */\n      swap2\n      swap1\n      pop\n      jump\t// out\n        /* \"#utility.yul\":2227:2304   */\n    tag_40:\n        /* \"#utility.yul\":2264:2271   */\n      0x00\n        /* \"#utility.yul\":2293:2298   */\n      dup2\n        /* \"#utility.yul\":2282:2298   */\n      swap1\n      pop\n        /* \"#utility.yul\":2227:2304   */\n      swap2\n      swap1\n      pop\n      jump\t// out\n        /* \"#utility.yul\":2310:2490   */\n    tag_53:\n        /* \"#utility.yul\":2358:2435   */\n      0x4e487b7100000000000000000000000000000000000000000000000000000000\n        /* \"#utility.yul\":2355:2356   */\n      0x00\n        /* \"#utility.yul\":2348:2436   */\n      mstore\n        /* \"#utility.yul\":2455:2459   */\n      0x11\n        /* \"#utility.yul\":2452:2453   */\n      0x04\n        /* \"#utility.yul\":2445:2460   */\n      mstore\n        /* \"#utility.yul\":2479:2483   */\n      0x24\n        /* \"#utility.yul\":2476:2477   */\n      0x00\n        /* \"#utility.yul\":2469:2484   */\n      revert\n        /* \"#utility.yul\":2496:2651   */\n    tag_36:\n        /* \"#utility.yul\":2636:2643   */\n      0x4572726f72000000000000000000000000000000000000000000000000000000\n        /* \"#utility.yul\":2632:2633   */\n      0x00\n        /* \"#utility.yul\":2624:2630   */\n      dup3\n        /* \"#utility.yul\":2620:2634   */\n      add\n        /* \"#utility.yul\":2613:2644   */\n      mstore\n        /* \"#utility.yul\":2496:2651   */\n      pop\n      jump\t// out\n\n    auxdata: 0xa2646970667358221220bb43136902c915e73dd3b5a0ae5439483a36e8f5409f6e04fa624c1b00845d1b64736f6c63430008070033\n}\n",
				"bytecode": {
					"linkReferences": {},
					"object": "608060405234801561001057600080fd5b50336000806101000a81548173ffffffffffffffffffffffffffffffffffffffff021916908373ffffffffffffffffffffffffffffffffffffffff1602179055503373ffffffffffffffffffffffffffffffffffffffff1660008054906101000a900473ffffffffffffffffffffffffffffffffffffffff1673ffffffffffffffffffffffffffffffffffffffff16146100df576040517f08c379a00000000000000000000000000000000000000000000000000000000081526004016100d690610107565b60405180910390fd5b610161565b60006100f1600583610127565b91506100fc82610138565b602082019050919050565b60006020820190508181036000830152610120816100e4565b9050919050565b600082825260208201905092915050565b7f4572726f72000000000000000000000000000000000000000000000000000000600082015250565b61033d806101706000396000f3fe608060405234801561001057600080fd5b50600436106100415760003560e01c806338cc483114610046578063893d20e814610064578063c4f29d7114610082575b600080fd5b61004e6100a0565b60405161005b91906101b6565b60405180910390f35b61006c6100a8565b60405161007991906101b6565b60405180910390f35b61008a6100d1565b60405161009791906101f1565b60405180910390f35b600033905090565b60008060009054906101000a900473ffffffffffffffffffffffffffffffffffffffff16905090565b60003373ffffffffffffffffffffffffffffffffffffffff1660008054906101000a900473ffffffffffffffffffffffffffffffffffffffff1673ffffffffffffffffffffffffffffffffffffffff1614610161576040517f08c379a0000000000000000000000000000000000000000000000000000000008152600401610158906101d1565b60405180910390fd5b6201518042610170919061021d565b905090565b61017e81610273565b82525050565b600061019160058361020c565b915061019c826102de565b602082019050919050565b6101b0816102a5565b82525050565b60006020820190506101cb6000830184610175565b92915050565b600060208201905081810360008301526101ea81610184565b9050919050565b600060208201905061020660008301846101a7565b92915050565b600082825260208201905092915050565b6000610228826102a5565b9150610233836102a5565b9250827fffffffffffffffffffffffffffffffffffffffffffffffffffffffffffffffff03821115610268576102676102af565b5b828201905092915050565b600061027e82610285565b9050919050565b600073ffffffffffffffffffffffffffffffffffffffff82169050919050565b6000819050919050565b7f4e487b7100000000000000000000000000000000000000000000000000000000600052601160045260246000fd5b7f4572726f7200000000000000000000000000000000000000000000000000000060008201525056fea2646970667358221220bb43136902c915e73dd3b5a0ae5439483a36e8f5409f6e04fa624c1b00845d1b64736f6c63430008070033",
					"opcodes": "PUSH1 0x80 PUSH1 0x40 MSTORE CALLVALUE DUP1 ISZERO PUSH2 0x10 JUMPI PUSH1 0x0 DUP1 REVERT JUMPDEST POP CALLER PUSH1 0x0 DUP1 PUSH2 0x100 EXP DUP2 SLOAD DUP2 PUSH20 0xFFFFFFFFFFFFFFFFFFFFFFFFFFFFFFFFFFFFFFFF MUL NOT AND SWAP1 DUP4 PUSH20 0xFFFFFFFFFFFFFFFFFFFFFFFFFFFFFFFFFFFFFFFF AND MUL OR SWAP1 SSTORE POP CALLER PUSH20 0xFFFFFFFFFFFFFFFFFFFFFFFFFFFFFFFFFFFFFFFF AND PUSH1 0x0 DUP1 SLOAD SWAP1 PUSH2 0x100 EXP SWAP1 DIV PUSH20 0xFFFFFFFFFFFFFFFFFFFFFFFFFFFFFFFFFFFFFFFF AND PUSH20 0xFFFFFFFFFFFFFFFFFFFFFFFFFFFFFFFFFFFFFFFF AND EQ PUSH2 0xDF JUMPI PUSH1 0x40 MLOAD PUSH32 0x8C379A000000000000000000000000000000000000000000000000000000000 DUP2 MSTORE PUSH1 0x4 ADD PUSH2 0xD6 SWAP1 PUSH2 0x107 JUMP JUMPDEST PUSH1 0x40 MLOAD DUP1 SWAP2 SUB SWAP1 REVERT JUMPDEST PUSH2 0x161 JUMP JUMPDEST PUSH1 0x0 PUSH2 0xF1 PUSH1 0x5 DUP4 PUSH2 0x127 JUMP JUMPDEST SWAP2 POP PUSH2 0xFC DUP3 PUSH2 0x138 JUMP JUMPDEST PUSH1 0x20 DUP3 ADD SWAP1 POP SWAP2 SWAP1 POP JUMP JUMPDEST PUSH1 0x0 PUSH1 0x20 DUP3 ADD SWAP1 POP DUP2 DUP2 SUB PUSH1 0x0 DUP4 ADD MSTORE PUSH2 0x120 DUP2 PUSH2 0xE4 JUMP JUMPDEST SWAP1 POP SWAP2 SWAP1 POP JUMP JUMPDEST PUSH1 0x0 DUP3 DUP3 MSTORE PUSH1 0x20 DUP3 ADD SWAP1 POP SWAP3 SWAP2 POP POP JUMP JUMPDEST PUSH32 0x4572726F72000000000000000000000000000000000000000000000000000000 PUSH1 0x0 DUP3 ADD MSTORE POP JUMP JUMPDEST PUSH2 0x33D DUP1 PUSH2 0x170 PUSH1 0x0 CODECOPY PUSH1 0x0 RETURN INVALID PUSH1 0x80 PUSH1 0x40 MSTORE CALLVALUE DUP1 ISZERO PUSH2 0x10 JUMPI PUSH1 0x0 DUP1 REVERT JUMPDEST POP PUSH1 0x4 CALLDATASIZE LT PUSH2 0x41 JUMPI PUSH1 0x0 CALLDATALOAD PUSH1 0xE0 SHR DUP1 PUSH4 0x38CC4831 EQ PUSH2 0x46 JUMPI DUP1 PUSH4 0x893D20E8 EQ PUSH2 0x64 JUMPI DUP1 PUSH4 0xC4F29D71 EQ PUSH2 0x82 JUMPI JUMPDEST PUSH1 0x0 DUP1 REVERT JUMPDEST PUSH2 0x4E PUSH2 0xA0 JUMP JUMPDEST PUSH1 0x40 MLOAD PUSH2 0x5B SWAP2 SWAP1 PUSH2 0x1B6 JUMP JUMPDEST PUSH1 0x40 MLOAD DUP1 SWAP2 SUB SWAP1 RETURN JUMPDEST PUSH2 0x6C PUSH2 0xA8 JUMP JUMPDEST PUSH1 0x40 MLOAD PUSH2 0x79 SWAP2 SWAP1 PUSH2 0x1B6 JUMP JUMPDEST PUSH1 0x40 MLOAD DUP1 SWAP2 SUB SWAP1 RETURN JUMPDEST PUSH2 0x8A PUSH2 0xD1 JUMP JUMPDEST PUSH1 0x40 MLOAD PUSH2 0x97 SWAP2 SWAP1 PUSH2 0x1F1 JUMP JUMPDEST PUSH1 0x40 MLOAD DUP1 SWAP2 SUB SWAP1 RETURN JUMPDEST PUSH1 0x0 CALLER SWAP1 POP SWAP1 JUMP JUMPDEST PUSH1 0x0 DUP1 PUSH1 0x0 SWAP1 SLOAD SWAP1 PUSH2 0x100 EXP SWAP1 DIV PUSH20 0xFFFFFFFFFFFFFFFFFFFFFFFFFFFFFFFFFFFFFFFF AND SWAP1 POP SWAP1 JUMP JUMPDEST PUSH1 0x0 CALLER PUSH20 0xFFFFFFFFFFFFFFFFFFFFFFFFFFFFFFFFFFFFFFFF AND PUSH1 0x0 DUP1 SLOAD SWAP1 PUSH2 0x100 EXP SWAP1 DIV PUSH20 0xFFFFFFFFFFFFFFFFFFFFFFFFFFFFFFFFFFFFFFFF AND PUSH20 0xFFFFFFFFFFFFFFFFFFFFFFFFFFFFFFFFFFFFFFFF AND EQ PUSH2 0x161 JUMPI PUSH1 0x40 MLOAD PUSH32 0x8C379A000000000000000000000000000000000000000000000000000000000 DUP2 MSTORE PUSH1 0x4 ADD PUSH2 0x158 SWAP1 PUSH2 0x1D1 JUMP JUMPDEST PUSH1 0x40 MLOAD DUP1 SWAP2 SUB SWAP1 REVERT JUMPDEST PUSH3 0x15180 TIMESTAMP PUSH2 0x170 SWAP2 SWAP1 PUSH2 0x21D JUMP JUMPDEST SWAP1 POP SWAP1 JUMP JUMPDEST PUSH2 0x17E DUP2 PUSH2 0x273 JUMP JUMPDEST DUP3 MSTORE POP POP JUMP JUMPDEST PUSH1 0x0 PUSH2 0x191 PUSH1 0x5 DUP4 PUSH2 0x20C JUMP JUMPDEST SWAP2 POP PUSH2 0x19C DUP3 PUSH2 0x2DE JUMP JUMPDEST PUSH1 0x20 DUP3 ADD SWAP1 POP SWAP2 SWAP1 POP JUMP JUMPDEST PUSH2 0x1B0 DUP2 PUSH2 0x2A5 JUMP JUMPDEST DUP3 MSTORE POP POP JUMP JUMPDEST PUSH1 0x0 PUSH1 0x20 DUP3 ADD SWAP1 POP PUSH2 0x1CB PUSH1 0x0 DUP4 ADD DUP5 PUSH2 0x175 JUMP JUMPDEST SWAP3 SWAP2 POP POP JUMP JUMPDEST PUSH1 0x0 PUSH1 0x20 DUP3 ADD SWAP1 POP DUP2 DUP2 SUB PUSH1 0x0 DUP4 ADD MSTORE PUSH2 0x1EA DUP2 PUSH2 0x184 JUMP JUMPDEST SWAP1 POP SWAP2 SWAP1 POP JUMP JUMPDEST PUSH1 0x0 PUSH1 0x20 DUP3 ADD SWAP1 POP PUSH2 0x206 PUSH1 0x0 DUP4 ADD DUP5 PUSH2 0x1A7 JUMP JUMPDEST SWAP3 SWAP2 POP POP JUMP JUMPDEST PUSH1 0x0 DUP3 DUP3 MSTORE PUSH1 0x20 DUP3 ADD SWAP1 POP SWAP3 SWAP2 POP POP JUMP JUMPDEST PUSH1 0x0 PUSH2 0x228 DUP3 PUSH2 0x2A5 JUMP JUMPDEST SWAP2 POP PUSH2 0x233 DUP4 PUSH2 0x2A5 JUMP JUMPDEST SWAP3 POP DUP3 PUSH32 0xFFFFFFFFFFFFFFFFFFFFFFFFFFFFFFFFFFFFFFFFFFFFFFFFFFFFFFFFFFFFFFFF SUB DUP3 GT ISZERO PUSH2 0x268 JUMPI PUSH2 0x267 PUSH2 0x2AF JUMP JUMPDEST JUMPDEST DUP3 DUP3 ADD SWAP1 POP SWAP3 SWAP2 POP POP JUMP JUMPDEST PUSH1 0x0 PUSH2 0x27E DUP3 PUSH2 0x285 JUMP JUMPDEST SWAP1 POP SWAP2 SWAP1 POP JUMP JUMPDEST PUSH1 0x0 PUSH20 0xFFFFFFFFFFFFFFFFFFFFFFFFFFFFFFFFFFFFFFFF DUP3 AND SWAP1 POP SWAP2 SWAP1 POP JUMP JUMPDEST PUSH1 0x0 DUP2 SWAP1 POP SWAP2 SWAP1 POP JUMP JUMPDEST PUSH32 0x4E487B7100000000000000000000000000000000000000000000000000000000 PUSH1 0x0 MSTORE PUSH1 0x11 PUSH1 0x4 MSTORE PUSH1 0x24 PUSH1 0x0 REVERT JUMPDEST PUSH32 0x4572726F72000000000000000000000000000000000000000000000000000000 PUSH1 0x0 DUP3 ADD MSTORE POP JUMP INVALID LOG2 PUSH5 0x6970667358 0x22 SLT KECCAK256 0xBB NUMBER SGT PUSH10 0x2C915E73DD3B5A0AE54 CODECOPY BASEFEE GASPRICE CALLDATASIZE 0xE8 CREATE2 BLOCKHASH SWAP16 PUSH15 0x4FA624C1B00845D1B64736F6C6343 STOP ADDMOD SMOD STOP CALLER "
				},
				"gasEstimates": {
					"creation": {
						"codeDepositCost": "165800",
						"executionCost": "26653",
						"totalCost": "192453"
					},
					"external": {
						"getAddress()": "363",
						"getOwner()": "2522",
						"getTomorrowUnixTimestamp()": "infinite"
					}
				},
				"methodIdentifiers": {
					"getAddress()": "38cc4831",
					"getOwner()": "893d20e8",
					"getTomorrowUnixTimestamp()": "c4f29d71"
				}
			},
			"storageLayout": {
				"storage": [
					{
						"astId": 3,
						"contract": "day7.sol:Day7",
						"label": "owner",
						"offset": 0,
						"slot": "0",
						"type": "t_address"
					}
				],
				"types": {
					"t_address": {
						"encoding": "inplace",
						"label": "address",
						"numberOfBytes": "20"
					}
				}
			},
			"userdoc": {
				"kind": "user",
				"methods": {},
				"version": 1
			}
		}
	}
}