{
	"data": {
		"bytecode": {
			"linkReferences": {},
			"object": "608060405234801561001057600080fd5b506102c8806100206000396000f3fe608060405234801561001057600080fd5b50600436106100365760003560e01c8063107548bb1461003b57806372794b4c14610059575b600080fd5b610043610063565b60405161005091906101c5565b60405180910390f35b6100616100aa565b005b60006100a36040518060400160405280600e81526020017f415f706f6c796d6f72706869736d0000000000000000000000000000000000008152506100ea565b6000905090565b6100e86040518060400160405280600581526020017f73757065720000000000000000000000000000000000000000000000000000008152506100ea565b565b610180816040516024016100fe9190610270565b6040516020818303038152906040527f41304fac000000000000000000000000000000000000000000000000000000007bffffffffffffffffffffffffffffffffffffffffffffffffffffffff19166020820180517bffffffffffffffffffffffffffffffffffffffffffffffffffffffff8381831617835250505050610183565b50565b60008151905060006a636f6e736f6c652e6c6f679050602083016000808483855afa5050505050565b6000819050919050565b6101bf816101ac565b82525050565b60006020820190506101da60008301846101b6565b92915050565b600081519050919050565b600082825260208201905092915050565b60005b8381101561021a5780820151818401526020810190506101ff565b60008484015250505050565b6000601f19601f8301169050919050565b6000610242826101e0565b61024c81856101eb565b935061025c8185602086016101fc565b61026581610226565b840191505092915050565b6000602082019050818103600083015261028a8184610237565b90509291505056fea264697066735822122013f419cbb45802fd417fba1cb1f490fc7c0debfafd6b1c95707636a5fd3c6af764736f6c63430008110033",
			"opcodes": "PUSH1 0x80 PUSH1 0x40 MSTORE CALLVALUE DUP1 ISZERO PUSH2 0x10 JUMPI PUSH1 0x0 DUP1 REVERT JUMPDEST POP PUSH2 0x2C8 DUP1 PUSH2 0x20 PUSH1 0x0 CODECOPY PUSH1 0x0 RETURN INVALID PUSH1 0x80 PUSH1 0x40 MSTORE CALLVALUE DUP1 ISZERO PUSH2 0x10 JUMPI PUSH1 0x0 DUP1 REVERT JUMPDEST POP PUSH1 0x4 CALLDATASIZE LT PUSH2 0x36 JUMPI PUSH1 0x0 CALLDATALOAD PUSH1 0xE0 SHR DUP1 PUSH4 0x107548BB EQ PUSH2 0x3B JUMPI DUP1 PUSH4 0x72794B4C EQ PUSH2 0x59 JUMPI JUMPDEST PUSH1 0x0 DUP1 REVERT JUMPDEST PUSH2 0x43 PUSH2 0x63 JUMP JUMPDEST PUSH1 0x40 MLOAD PUSH2 0x50 SWAP2 SWAP1 PUSH2 0x1C5 JUMP JUMPDEST PUSH1 0x40 MLOAD DUP1 SWAP2 SUB SWAP1 RETURN JUMPDEST PUSH2 0x61 PUSH2 0xAA JUMP JUMPDEST STOP JUMPDEST PUSH1 0x0 PUSH2 0xA3 PUSH1 0x40 MLOAD DUP1 PUSH1 0x40 ADD PUSH1 0x40 MSTORE DUP1 PUSH1 0xE DUP2 MSTORE PUSH1 0x20 ADD PUSH32 0x415F706F6C796D6F72706869736D000000000000000000000000000000000000 DUP2 MSTORE POP PUSH2 0xEA JUMP JUMPDEST PUSH1 0x0 SWAP1 POP SWAP1 JUMP JUMPDEST PUSH2 0xE8 PUSH1 0x40 MLOAD DUP1 PUSH1 0x40 ADD PUSH1 0x40 MSTORE DUP1 PUSH1 0x5 DUP2 MSTORE PUSH1 0x20 ADD PUSH32 0x7375706572000000000000000000000000000000000000000000000000000000 DUP2 MSTORE POP PUSH2 0xEA JUMP JUMPDEST JUMP JUMPDEST PUSH2 0x180 DUP2 PUSH1 0x40 MLOAD PUSH1 0x24 ADD PUSH2 0xFE SWAP2 SWAP1 PUSH2 0x270 JUMP JUMPDEST PUSH1 0x40 MLOAD PUSH1 0x20 DUP2 DUP4 SUB SUB DUP2 MSTORE SWAP1 PUSH1 0x40 MSTORE PUSH32 0x41304FAC00000000000000000000000000000000000000000000000000000000 PUSH28 0xFFFFFFFFFFFFFFFFFFFFFFFFFFFFFFFFFFFFFFFFFFFFFFFFFFFFFFFF NOT AND PUSH1 0x20 DUP3 ADD DUP1 MLOAD PUSH28 0xFFFFFFFFFFFFFFFFFFFFFFFFFFFFFFFFFFFFFFFFFFFFFFFFFFFFFFFF DUP4 DUP2 DUP4 AND OR DUP4 MSTORE POP POP POP POP PUSH2 0x183 JUMP JUMPDEST POP JUMP JUMPDEST PUSH1 0x0 DUP2 MLOAD SWAP1 POP PUSH1 0x0 PUSH11 0x636F6E736F6C652E6C6F67 SWAP1 POP PUSH1 0x20 DUP4 ADD PUSH1 0x0 DUP1 DUP5 DUP4 DUP6 GAS STATICCALL POP POP POP POP POP JUMP JUMPDEST PUSH1 0x0 DUP2 SWAP1 POP SWAP2 SWAP1 POP JUMP JUMPDEST PUSH2 0x1BF DUP2 PUSH2 0x1AC JUMP JUMPDEST DUP3 MSTORE POP POP JUMP JUMPDEST PUSH1 0x0 PUSH1 0x20 DUP3 ADD SWAP1 POP PUSH2 0x1DA PUSH1 0x0 DUP4 ADD DUP5 PUSH2 0x1B6 JUMP JUMPDEST SWAP3 SWAP2 POP POP JUMP JUMPDEST PUSH1 0x0 DUP2 MLOAD SWAP1 POP SWAP2 SWAP1 POP JUMP JUMPDEST PUSH1 0x0 DUP3 DUP3 MSTORE PUSH1 0x20 DUP3 ADD SWAP1 POP SWAP3 SWAP2 POP POP JUMP JUMPDEST PUSH1 0x0 JUMPDEST DUP4 DUP2 LT ISZERO PUSH2 0x21A JUMPI DUP1 DUP3 ADD MLOAD DUP2 DUP5 ADD MSTORE PUSH1 0x20 DUP2 ADD SWAP1 POP PUSH2 0x1FF JUMP JUMPDEST PUSH1 0x0 DUP5 DUP5 ADD MSTORE POP POP POP POP JUMP JUMPDEST PUSH1 0x0 PUSH1 0x1F NOT PUSH1 0x1F DUP4 ADD AND SWAP1 POP SWAP2 SWAP1 POP JUMP JUMPDEST PUSH1 0x0 PUSH2 0x242 DUP3 PUSH2 0x1E0 JUMP JUMPDEST PUSH2 0x24C DUP2 DUP6 PUSH2 0x1EB JUMP JUMPDEST SWAP4 POP PUSH2 0x25C DUP2 DUP6 PUSH1 0x20 DUP7 ADD PUSH2 0x1FC JUMP JUMPDEST PUSH2 0x265 DUP2 PUSH2 0x226 JUMP JUMPDEST DUP5 ADD SWAP2 POP POP SWAP3 SWAP2 POP POP JUMP JUMPDEST PUSH1 0x0 PUSH1 0x20 DUP3 ADD SWAP1 POP DUP2 DUP2 SUB PUSH1 0x0 DUP4 ADD MSTORE PUSH2 0x28A DUP2 DUP5 PUSH2 0x237 JUMP JUMPDEST SWAP1 POP SWAP3 SWAP2 POP POP JUMP INVALID LOG2 PUSH5 0x6970667358 0x22 SLT KECCAK256 SGT DELEGATECALL NOT 0xCB 0xB4 PC MUL REVERT COINBASE PUSH32 0xBA1CB1F490FC7C0DEBFAFD6B1C95707636A5FD3C6AF764736F6C634300081100 CALLER "
		},
		"gasEstimates": {
			"creation": {
				"codeDepositCost": "142400",
				"executionCost": "190",
				"totalCost": "142590"
			},
			"external": {
				"test_polymorphism()": "infinite",
				"test_super()": "infinite"
			}
		},
		"methodIdentifiers": {
			"test_polymorphism()": "107548bb",
			"test_super()": "72794b4c"
		}
	},
	"abi": [
		{
			"inputs": [],
			"name": "test_polymorphism",
			"outputs": [
				{
					"internalType": "uint256",
					"name": "",
					"type": "uint256"
				}
			],
			"stateMutability": "view",
			"type": "function"
		},
		{
			"inputs": [],
			"name": "test_super",
			"outputs": [],
			"stateMutability": "view",
			"type": "function"
		}
	]
}