{
	"data": {
		"bytecode": {
			"linkReferences": {},
			"object": "608060405234801561001057600080fd5b506100596040518060400160405280600181526020017f42000000000000000000000000000000000000000000000000000000000000008152506100a660201b6103061760201c565b6100a16040518060400160405280600481526020017f6d61696e000000000000000000000000000000000000000000000000000000008152506100a660201b6103061760201c565b610220565b610142816040516024016100ba91906101fe565b6040516020818303038152906040527f41304fac000000000000000000000000000000000000000000000000000000007bffffffffffffffffffffffffffffffffffffffffffffffffffffffff19166020820180517bffffffffffffffffffffffffffffffffffffffffffffffffffffffff838183161783525050505061014560201b60201c565b50565b60008151905060006a636f6e736f6c652e6c6f679050602083016000808483855afa5050505050565b600081519050919050565b600082825260208201905092915050565b60005b838110156101a857808201518184015260208101905061018d565b60008484015250505050565b6000601f19601f8301169050919050565b60006101d08261016e565b6101da8185610179565b93506101ea81856020860161018a565b6101f3816101b4565b840191505092915050565b6000602082019050818103600083015261021881846101c5565b905092915050565b61061b8061022f6000396000f3fe608060405234801561001057600080fd5b50600436106100885760003560e01c80638ef1ae5a1161005b5780638ef1ae5a146100db578063b0d0c170146100e5578063e7d1ab64146100ef578063fa55361d1461011f57610088565b8063107548bb1461008d57806328883ca7146100ab57806372794b4c146100c757806381be0a20146100d1575b600080fd5b610095610129565b6040516100a291906104ba565b60405180910390f35b6100c560048036038101906100c09190610506565b610170565b005b6100cf6101ba565b005b6100d96101fa565b005b6100e361023a565b005b6100ed610250565b005b61010960048036038101906101049190610506565b610290565b60405161011691906104ba565b60405180910390f35b6101276102d8565b005b60006101696040518060400160405280600e81526020017f415f706f6c796d6f72706869736d000000000000000000000000000000000000815250610306565b6000905090565b6101ae6040518060400160405280600781526020017f7375706572204200000000000000000000000000000000000000000000000000815250610306565b6101b78161039f565b50565b6101f86040518060400160405280600a81526020017f6d61696e5f737570657200000000000000000000000000000000000000000000815250610306565b565b6102386040518060400160405280600981526020017f6f72766572726964650000000000000000000000000000000000000000000000815250610306565b565b610242610129565b5061024d6001610290565b50565b61028e6040518060400160405280600681526020017f424153455f420000000000000000000000000000000000000000000000000000815250610306565b565b60006102d06040518060400160405280600e81526020017f425f706f6c796d6f72706869736d000000000000000000000000000000000000815250610306565b819050919050565b6102e06101ba565b6102e8610438565b6102f26002610170565b6102fa610438565b6103046063610170565b565b61039c8160405160240161031a91906105c3565b6040516020818303038152906040527f41304fac000000000000000000000000000000000000000000000000000000007bffffffffffffffffffffffffffffffffffffffffffffffffffffffff19166020820180517bffffffffffffffffffffffffffffffffffffffffffffffffffffffff8381831617835250505050610478565b50565b610435816040516024016103b391906104ba565b6040516020818303038152906040527ff82c50f1000000000000000000000000000000000000000000000000000000007bffffffffffffffffffffffffffffffffffffffffffffffffffffffff19166020820180517bffffffffffffffffffffffffffffffffffffffffffffffffffffffff8381831617835250505050610478565b50565b6104766040518060400160405280600581526020017f7375706572000000000000000000000000000000000000000000000000000000815250610306565b565b60008151905060006a636f6e736f6c652e6c6f679050602083016000808483855afa5050505050565b6000819050919050565b6104b4816104a1565b82525050565b60006020820190506104cf60008301846104ab565b92915050565b600080fd5b6104e3816104a1565b81146104ee57600080fd5b50565b600081359050610500816104da565b92915050565b60006020828403121561051c5761051b6104d5565b5b600061052a848285016104f1565b91505092915050565b600081519050919050565b600082825260208201905092915050565b60005b8381101561056d578082015181840152602081019050610552565b60008484015250505050565b6000601f19601f8301169050919050565b600061059582610533565b61059f818561053e565b93506105af81856020860161054f565b6105b881610579565b840191505092915050565b600060208201905081810360008301526105dd818461058a565b90509291505056fea26469706673582212209fc82f80fb74d3212ec3afe83a9a98d341aef38ccd849de90d00c78ab154f8ed64736f6c63430008110033",
			"opcodes": "PUSH1 0x80 PUSH1 0x40 MSTORE CALLVALUE DUP1 ISZERO PUSH2 0x10 JUMPI PUSH1 0x0 DUP1 REVERT JUMPDEST POP PUSH2 0x59 PUSH1 0x40 MLOAD DUP1 PUSH1 0x40 ADD PUSH1 0x40 MSTORE DUP1 PUSH1 0x1 DUP2 MSTORE PUSH1 0x20 ADD PUSH32 0x4200000000000000000000000000000000000000000000000000000000000000 DUP2 MSTORE POP PUSH2 0xA6 PUSH1 0x20 SHL PUSH2 0x306 OR PUSH1 0x20 SHR JUMP JUMPDEST PUSH2 0xA1 PUSH1 0x40 MLOAD DUP1 PUSH1 0x40 ADD PUSH1 0x40 MSTORE DUP1 PUSH1 0x4 DUP2 MSTORE PUSH1 0x20 ADD PUSH32 0x6D61696E00000000000000000000000000000000000000000000000000000000 DUP2 MSTORE POP PUSH2 0xA6 PUSH1 0x20 SHL PUSH2 0x306 OR PUSH1 0x20 SHR JUMP JUMPDEST PUSH2 0x220 JUMP JUMPDEST PUSH2 0x142 DUP2 PUSH1 0x40 MLOAD PUSH1 0x24 ADD PUSH2 0xBA SWAP2 SWAP1 PUSH2 0x1FE JUMP JUMPDEST PUSH1 0x40 MLOAD PUSH1 0x20 DUP2 DUP4 SUB SUB DUP2 MSTORE SWAP1 PUSH1 0x40 MSTORE PUSH32 0x41304FAC00000000000000000000000000000000000000000000000000000000 PUSH28 0xFFFFFFFFFFFFFFFFFFFFFFFFFFFFFFFFFFFFFFFFFFFFFFFFFFFFFFFF NOT AND PUSH1 0x20 DUP3 ADD DUP1 MLOAD PUSH28 0xFFFFFFFFFFFFFFFFFFFFFFFFFFFFFFFFFFFFFFFFFFFFFFFFFFFFFFFF DUP4 DUP2 DUP4 AND OR DUP4 MSTORE POP POP POP POP PUSH2 0x145 PUSH1 0x20 SHL PUSH1 0x20 SHR JUMP JUMPDEST POP JUMP JUMPDEST PUSH1 0x0 DUP2 MLOAD SWAP1 POP PUSH1 0x0 PUSH11 0x636F6E736F6C652E6C6F67 SWAP1 POP PUSH1 0x20 DUP4 ADD PUSH1 0x0 DUP1 DUP5 DUP4 DUP6 GAS STATICCALL POP POP POP POP POP JUMP JUMPDEST PUSH1 0x0 DUP2 MLOAD SWAP1 POP SWAP2 SWAP1 POP JUMP JUMPDEST PUSH1 0x0 DUP3 DUP3 MSTORE PUSH1 0x20 DUP3 ADD SWAP1 POP SWAP3 SWAP2 POP POP JUMP JUMPDEST PUSH1 0x0 JUMPDEST DUP4 DUP2 LT ISZERO PUSH2 0x1A8 JUMPI DUP1 DUP3 ADD MLOAD DUP2 DUP5 ADD MSTORE PUSH1 0x20 DUP2 ADD SWAP1 POP PUSH2 0x18D JUMP JUMPDEST PUSH1 0x0 DUP5 DUP5 ADD MSTORE POP POP POP POP JUMP JUMPDEST PUSH1 0x0 PUSH1 0x1F NOT PUSH1 0x1F DUP4 ADD AND SWAP1 POP SWAP2 SWAP1 POP JUMP JUMPDEST PUSH1 0x0 PUSH2 0x1D0 DUP3 PUSH2 0x16E JUMP JUMPDEST PUSH2 0x1DA DUP2 DUP6 PUSH2 0x179 JUMP JUMPDEST SWAP4 POP PUSH2 0x1EA DUP2 DUP6 PUSH1 0x20 DUP7 ADD PUSH2 0x18A JUMP JUMPDEST PUSH2 0x1F3 DUP2 PUSH2 0x1B4 JUMP JUMPDEST DUP5 ADD SWAP2 POP POP SWAP3 SWAP2 POP POP JUMP JUMPDEST PUSH1 0x0 PUSH1 0x20 DUP3 ADD SWAP1 POP DUP2 DUP2 SUB PUSH1 0x0 DUP4 ADD MSTORE PUSH2 0x218 DUP2 DUP5 PUSH2 0x1C5 JUMP JUMPDEST SWAP1 POP SWAP3 SWAP2 POP POP JUMP JUMPDEST PUSH2 0x61B DUP1 PUSH2 0x22F PUSH1 0x0 CODECOPY PUSH1 0x0 RETURN INVALID PUSH1 0x80 PUSH1 0x40 MSTORE CALLVALUE DUP1 ISZERO PUSH2 0x10 JUMPI PUSH1 0x0 DUP1 REVERT JUMPDEST POP PUSH1 0x4 CALLDATASIZE LT PUSH2 0x88 JUMPI PUSH1 0x0 CALLDATALOAD PUSH1 0xE0 SHR DUP1 PUSH4 0x8EF1AE5A GT PUSH2 0x5B JUMPI DUP1 PUSH4 0x8EF1AE5A EQ PUSH2 0xDB JUMPI DUP1 PUSH4 0xB0D0C170 EQ PUSH2 0xE5 JUMPI DUP1 PUSH4 0xE7D1AB64 EQ PUSH2 0xEF JUMPI DUP1 PUSH4 0xFA55361D EQ PUSH2 0x11F JUMPI PUSH2 0x88 JUMP JUMPDEST DUP1 PUSH4 0x107548BB EQ PUSH2 0x8D JUMPI DUP1 PUSH4 0x28883CA7 EQ PUSH2 0xAB JUMPI DUP1 PUSH4 0x72794B4C EQ PUSH2 0xC7 JUMPI DUP1 PUSH4 0x81BE0A20 EQ PUSH2 0xD1 JUMPI JUMPDEST PUSH1 0x0 DUP1 REVERT JUMPDEST PUSH2 0x95 PUSH2 0x129 JUMP JUMPDEST PUSH1 0x40 MLOAD PUSH2 0xA2 SWAP2 SWAP1 PUSH2 0x4BA JUMP JUMPDEST PUSH1 0x40 MLOAD DUP1 SWAP2 SUB SWAP1 RETURN JUMPDEST PUSH2 0xC5 PUSH1 0x4 DUP1 CALLDATASIZE SUB DUP2 ADD SWAP1 PUSH2 0xC0 SWAP2 SWAP1 PUSH2 0x506 JUMP JUMPDEST PUSH2 0x170 JUMP JUMPDEST STOP JUMPDEST PUSH2 0xCF PUSH2 0x1BA JUMP JUMPDEST STOP JUMPDEST PUSH2 0xD9 PUSH2 0x1FA JUMP JUMPDEST STOP JUMPDEST PUSH2 0xE3 PUSH2 0x23A JUMP JUMPDEST STOP JUMPDEST PUSH2 0xED PUSH2 0x250 JUMP JUMPDEST STOP JUMPDEST PUSH2 0x109 PUSH1 0x4 DUP1 CALLDATASIZE SUB DUP2 ADD SWAP1 PUSH2 0x104 SWAP2 SWAP1 PUSH2 0x506 JUMP JUMPDEST PUSH2 0x290 JUMP JUMPDEST PUSH1 0x40 MLOAD PUSH2 0x116 SWAP2 SWAP1 PUSH2 0x4BA JUMP JUMPDEST PUSH1 0x40 MLOAD DUP1 SWAP2 SUB SWAP1 RETURN JUMPDEST PUSH2 0x127 PUSH2 0x2D8 JUMP JUMPDEST STOP JUMPDEST PUSH1 0x0 PUSH2 0x169 PUSH1 0x40 MLOAD DUP1 PUSH1 0x40 ADD PUSH1 0x40 MSTORE DUP1 PUSH1 0xE DUP2 MSTORE PUSH1 0x20 ADD PUSH32 0x415F706F6C796D6F72706869736D000000000000000000000000000000000000 DUP2 MSTORE POP PUSH2 0x306 JUMP JUMPDEST PUSH1 0x0 SWAP1 POP SWAP1 JUMP JUMPDEST PUSH2 0x1AE PUSH1 0x40 MLOAD DUP1 PUSH1 0x40 ADD PUSH1 0x40 MSTORE DUP1 PUSH1 0x7 DUP2 MSTORE PUSH1 0x20 ADD PUSH32 0x7375706572204200000000000000000000000000000000000000000000000000 DUP2 MSTORE POP PUSH2 0x306 JUMP JUMPDEST PUSH2 0x1B7 DUP2 PUSH2 0x39F JUMP JUMPDEST POP JUMP JUMPDEST PUSH2 0x1F8 PUSH1 0x40 MLOAD DUP1 PUSH1 0x40 ADD PUSH1 0x40 MSTORE DUP1 PUSH1 0xA DUP2 MSTORE PUSH1 0x20 ADD PUSH32 0x6D61696E5F737570657200000000000000000000000000000000000000000000 DUP2 MSTORE POP PUSH2 0x306 JUMP JUMPDEST JUMP JUMPDEST PUSH2 0x238 PUSH1 0x40 MLOAD DUP1 PUSH1 0x40 ADD PUSH1 0x40 MSTORE DUP1 PUSH1 0x9 DUP2 MSTORE PUSH1 0x20 ADD PUSH32 0x6F72766572726964650000000000000000000000000000000000000000000000 DUP2 MSTORE POP PUSH2 0x306 JUMP JUMPDEST JUMP JUMPDEST PUSH2 0x242 PUSH2 0x129 JUMP JUMPDEST POP PUSH2 0x24D PUSH1 0x1 PUSH2 0x290 JUMP JUMPDEST POP JUMP JUMPDEST PUSH2 0x28E PUSH1 0x40 MLOAD DUP1 PUSH1 0x40 ADD PUSH1 0x40 MSTORE DUP1 PUSH1 0x6 DUP2 MSTORE PUSH1 0x20 ADD PUSH32 0x424153455F420000000000000000000000000000000000000000000000000000 DUP2 MSTORE POP PUSH2 0x306 JUMP JUMPDEST JUMP JUMPDEST PUSH1 0x0 PUSH2 0x2D0 PUSH1 0x40 MLOAD DUP1 PUSH1 0x40 ADD PUSH1 0x40 MSTORE DUP1 PUSH1 0xE DUP2 MSTORE PUSH1 0x20 ADD PUSH32 0x425F706F6C796D6F72706869736D000000000000000000000000000000000000 DUP2 MSTORE POP PUSH2 0x306 JUMP JUMPDEST DUP2 SWAP1 POP SWAP2 SWAP1 POP JUMP JUMPDEST PUSH2 0x2E0 PUSH2 0x1BA JUMP JUMPDEST PUSH2 0x2E8 PUSH2 0x438 JUMP JUMPDEST PUSH2 0x2F2 PUSH1 0x2 PUSH2 0x170 JUMP JUMPDEST PUSH2 0x2FA PUSH2 0x438 JUMP JUMPDEST PUSH2 0x304 PUSH1 0x63 PUSH2 0x170 JUMP JUMPDEST JUMP JUMPDEST PUSH2 0x39C DUP2 PUSH1 0x40 MLOAD PUSH1 0x24 ADD PUSH2 0x31A SWAP2 SWAP1 PUSH2 0x5C3 JUMP JUMPDEST PUSH1 0x40 MLOAD PUSH1 0x20 DUP2 DUP4 SUB SUB DUP2 MSTORE SWAP1 PUSH1 0x40 MSTORE PUSH32 0x41304FAC00000000000000000000000000000000000000000000000000000000 PUSH28 0xFFFFFFFFFFFFFFFFFFFFFFFFFFFFFFFFFFFFFFFFFFFFFFFFFFFFFFFF NOT AND PUSH1 0x20 DUP3 ADD DUP1 MLOAD PUSH28 0xFFFFFFFFFFFFFFFFFFFFFFFFFFFFFFFFFFFFFFFFFFFFFFFFFFFFFFFF DUP4 DUP2 DUP4 AND OR DUP4 MSTORE POP POP POP POP PUSH2 0x478 JUMP JUMPDEST POP JUMP JUMPDEST PUSH2 0x435 DUP2 PUSH1 0x40 MLOAD PUSH1 0x24 ADD PUSH2 0x3B3 SWAP2 SWAP1 PUSH2 0x4BA JUMP JUMPDEST PUSH1 0x40 MLOAD PUSH1 0x20 DUP2 DUP4 SUB SUB DUP2 MSTORE SWAP1 PUSH1 0x40 MSTORE PUSH32 0xF82C50F100000000000000000000000000000000000000000000000000000000 PUSH28 0xFFFFFFFFFFFFFFFFFFFFFFFFFFFFFFFFFFFFFFFFFFFFFFFFFFFFFFFF NOT AND PUSH1 0x20 DUP3 ADD DUP1 MLOAD PUSH28 0xFFFFFFFFFFFFFFFFFFFFFFFFFFFFFFFFFFFFFFFFFFFFFFFFFFFFFFFF DUP4 DUP2 DUP4 AND OR DUP4 MSTORE POP POP POP POP PUSH2 0x478 JUMP JUMPDEST POP JUMP JUMPDEST PUSH2 0x476 PUSH1 0x40 MLOAD DUP1 PUSH1 0x40 ADD PUSH1 0x40 MSTORE DUP1 PUSH1 0x5 DUP2 MSTORE PUSH1 0x20 ADD PUSH32 0x7375706572000000000000000000000000000000000000000000000000000000 DUP2 MSTORE POP PUSH2 0x306 JUMP JUMPDEST JUMP JUMPDEST PUSH1 0x0 DUP2 MLOAD SWAP1 POP PUSH1 0x0 PUSH11 0x636F6E736F6C652E6C6F67 SWAP1 POP PUSH1 0x20 DUP4 ADD PUSH1 0x0 DUP1 DUP5 DUP4 DUP6 GAS STATICCALL POP POP POP POP POP JUMP JUMPDEST PUSH1 0x0 DUP2 SWAP1 POP SWAP2 SWAP1 POP JUMP JUMPDEST PUSH2 0x4B4 DUP2 PUSH2 0x4A1 JUMP JUMPDEST DUP3 MSTORE POP POP JUMP JUMPDEST PUSH1 0x0 PUSH1 0x20 DUP3 ADD SWAP1 POP PUSH2 0x4CF PUSH1 0x0 DUP4 ADD DUP5 PUSH2 0x4AB JUMP JUMPDEST SWAP3 SWAP2 POP POP JUMP JUMPDEST PUSH1 0x0 DUP1 REVERT JUMPDEST PUSH2 0x4E3 DUP2 PUSH2 0x4A1 JUMP JUMPDEST DUP2 EQ PUSH2 0x4EE JUMPI PUSH1 0x0 DUP1 REVERT JUMPDEST POP JUMP JUMPDEST PUSH1 0x0 DUP2 CALLDATALOAD SWAP1 POP PUSH2 0x500 DUP2 PUSH2 0x4DA JUMP JUMPDEST SWAP3 SWAP2 POP POP JUMP JUMPDEST PUSH1 0x0 PUSH1 0x20 DUP3 DUP5 SUB SLT ISZERO PUSH2 0x51C JUMPI PUSH2 0x51B PUSH2 0x4D5 JUMP JUMPDEST JUMPDEST PUSH1 0x0 PUSH2 0x52A DUP5 DUP3 DUP6 ADD PUSH2 0x4F1 JUMP JUMPDEST SWAP2 POP POP SWAP3 SWAP2 POP POP JUMP JUMPDEST PUSH1 0x0 DUP2 MLOAD SWAP1 POP SWAP2 SWAP1 POP JUMP JUMPDEST PUSH1 0x0 DUP3 DUP3 MSTORE PUSH1 0x20 DUP3 ADD SWAP1 POP SWAP3 SWAP2 POP POP JUMP JUMPDEST PUSH1 0x0 JUMPDEST DUP4 DUP2 LT ISZERO PUSH2 0x56D JUMPI DUP1 DUP3 ADD MLOAD DUP2 DUP5 ADD MSTORE PUSH1 0x20 DUP2 ADD SWAP1 POP PUSH2 0x552 JUMP JUMPDEST PUSH1 0x0 DUP5 DUP5 ADD MSTORE POP POP POP POP JUMP JUMPDEST PUSH1 0x0 PUSH1 0x1F NOT PUSH1 0x1F DUP4 ADD AND SWAP1 POP SWAP2 SWAP1 POP JUMP JUMPDEST PUSH1 0x0 PUSH2 0x595 DUP3 PUSH2 0x533 JUMP JUMPDEST PUSH2 0x59F DUP2 DUP6 PUSH2 0x53E JUMP JUMPDEST SWAP4 POP PUSH2 0x5AF DUP2 DUP6 PUSH1 0x20 DUP7 ADD PUSH2 0x54F JUMP JUMPDEST PUSH2 0x5B8 DUP2 PUSH2 0x579 JUMP JUMPDEST DUP5 ADD SWAP2 POP POP SWAP3 SWAP2 POP POP JUMP JUMPDEST PUSH1 0x0 PUSH1 0x20 DUP3 ADD SWAP1 POP DUP2 DUP2 SUB PUSH1 0x0 DUP4 ADD MSTORE PUSH2 0x5DD DUP2 DUP5 PUSH2 0x58A JUMP JUMPDEST SWAP1 POP SWAP3 SWAP2 POP POP JUMP INVALID LOG2 PUSH5 0x6970667358 0x22 SLT KECCAK256 SWAP16 0xC8 0x2F DUP1 0xFB PUSH21 0xD3212EC3AFE83A9A98D341AEF38CCD849DE90D00C7 DUP11 0xB1 SLOAD 0xF8 0xED PUSH5 0x736F6C6343 STOP ADDMOD GT STOP CALLER "
		},
		"gasEstimates": {
			"creation": {
				"codeDepositCost": "312600",
				"executionCost": "infinite",
				"totalCost": "infinite"
			},
			"external": {
				"main_polymorphism()": "infinite",
				"testB_Base()": "infinite",
				"test_override()": "infinite",
				"test_polymorphism()": "infinite",
				"test_polymorphism(uint256)": "infinite",
				"test_run_super()": "infinite",
				"test_super()": "infinite",
				"test_super(uint256)": "infinite"
			}
		},
		"methodIdentifiers": {
			"main_polymorphism()": "8ef1ae5a",
			"testB_Base()": "b0d0c170",
			"test_override()": "81be0a20",
			"test_polymorphism()": "107548bb",
			"test_polymorphism(uint256)": "e7d1ab64",
			"test_run_super()": "fa55361d",
			"test_super()": "72794b4c",
			"test_super(uint256)": "28883ca7"
		}
	},
	"abi": [
		{
			"inputs": [],
			"stateMutability": "nonpayable",
			"type": "constructor"
		},
		{
			"inputs": [],
			"name": "main_polymorphism",
			"outputs": [],
			"stateMutability": "view",
			"type": "function"
		},
		{
			"inputs": [],
			"name": "testB_Base",
			"outputs": [],
			"stateMutability": "view",
			"type": "function"
		},
		{
			"inputs": [],
			"name": "test_override",
			"outputs": [],
			"stateMutability": "view",
			"type": "function"
		},
		{
			"inputs": [],
			"name": "test_polymorphism",
			"outputs": [
				{
					"internalType": "uint256",
					"name": "",
					"type": "uint256"
				}
			],
			"stateMutability": "view",
			"type": "function"
		},
		{
			"inputs": [
				{
					"internalType": "uint256",
					"name": "_int",
					"type": "uint256"
				}
			],
			"name": "test_polymorphism",
			"outputs": [
				{
					"internalType": "uint256",
					"name": "",
					"type": "uint256"
				}
			],
			"stateMutability": "view",
			"type": "function"
		},
		{
			"inputs": [],
			"name": "test_run_super",
			"outputs": [],
			"stateMutability": "view",
			"type": "function"
		},
		{
			"inputs": [
				{
					"internalType": "uint256",
					"name": "_int",
					"type": "uint256"
				}
			],
			"name": "test_super",
			"outputs": [],
			"stateMutability": "view",
			"type": "function"
		},
		{
			"inputs": [],
			"name": "test_super",
			"outputs": [],
			"stateMutability": "view",
			"type": "function"
		}
	]
}