{
	"data": {
		"bytecode": {
			"linkReferences": {},
			"object": "608060405234801561001057600080fd5b506100596040518060400160405280600181526020017f42000000000000000000000000000000000000000000000000000000000000008152506100a660201b6104051760201c565b6100a16040518060400160405280600481526020017f6d61696e000000000000000000000000000000000000000000000000000000008152506100a660201b6104051760201c565b610220565b610142816040516024016100ba91906101fe565b6040516020818303038152906040527f41304fac000000000000000000000000000000000000000000000000000000007bffffffffffffffffffffffffffffffffffffffffffffffffffffffff19166020820180517bffffffffffffffffffffffffffffffffffffffffffffffffffffffff838183161783525050505061014560201b60201c565b50565b60008151905060006a636f6e736f6c652e6c6f679050602083016000808483855afa5050505050565b600081519050919050565b600082825260208201905092915050565b60005b838110156101a857808201518184015260208101905061018d565b60008484015250505050565b6000601f19601f8301169050919050565b60006101d08261016e565b6101da8185610179565b93506101ea81856020860161018a565b6101f3816101b4565b840191505092915050565b6000602082019050818103600083015261021881846101c5565b905092915050565b61071a8061022f6000396000f3fe608060405234801561001057600080fd5b50600436106100a95760003560e01c8063824652461161007157806382465246146101065780638ef1ae5a14610110578063b0d0c1701461011a578063e269320014610124578063e7d1ab641461012e578063fa55361d1461015e576100a9565b8063107548bb146100ae57806328883ca7146100cc578063480a0654146100e857806372794b4c146100f257806381be0a20146100fc575b600080fd5b6100b6610168565b6040516100c391906105b9565b60405180910390f35b6100e660048036038101906100e19190610605565b6101af565b005b6100f06101f9565b005b6100fa610239565b005b610104610279565b005b61010e6102b9565b005b6101186102f9565b005b61012261030f565b005b61012c61034f565b005b61014860048036038101906101439190610605565b61038f565b60405161015591906105b9565b60405180910390f35b6101666103d7565b005b60006101a86040518060400160405280600e81526020017f415f706f6c796d6f72706869736d000000000000000000000000000000000000815250610405565b6000905090565b6101ed6040518060400160405280600781526020017f7375706572204200000000000000000000000000000000000000000000000000815250610405565b6101f68161049e565b50565b6102376040518060400160405280600b81526020017f696e746572666163655f42000000000000000000000000000000000000000000815250610405565b565b6102776040518060400160405280600a81526020017f6d61696e5f737570657200000000000000000000000000000000000000000000815250610405565b565b6102b76040518060400160405280600981526020017f6f72766572726964650000000000000000000000000000000000000000000000815250610405565b565b6102f76040518060400160405280600b81526020017f696e746572666163655f41000000000000000000000000000000000000000000815250610405565b565b610301610168565b5061030c600161038f565b50565b61034d6040518060400160405280600681526020017f424153455f420000000000000000000000000000000000000000000000000000815250610405565b565b61038d6040518060400160405280600b81526020017f696e746572666163655f43000000000000000000000000000000000000000000815250610405565b565b60006103cf6040518060400160405280600e81526020017f425f706f6c796d6f72706869736d000000000000000000000000000000000000815250610405565b819050919050565b6103df610239565b6103e7610537565b6103f160026101af565b6103f9610537565b61040360636101af565b565b61049b8160405160240161041991906106c2565b6040516020818303038152906040527f41304fac000000000000000000000000000000000000000000000000000000007bffffffffffffffffffffffffffffffffffffffffffffffffffffffff19166020820180517bffffffffffffffffffffffffffffffffffffffffffffffffffffffff8381831617835250505050610577565b50565b610534816040516024016104b291906105b9565b6040516020818303038152906040527ff82c50f1000000000000000000000000000000000000000000000000000000007bffffffffffffffffffffffffffffffffffffffffffffffffffffffff19166020820180517bffffffffffffffffffffffffffffffffffffffffffffffffffffffff8381831617835250505050610577565b50565b6105756040518060400160405280600581526020017f7375706572000000000000000000000000000000000000000000000000000000815250610405565b565b60008151905060006a636f6e736f6c652e6c6f679050602083016000808483855afa5050505050565b6000819050919050565b6105b3816105a0565b82525050565b60006020820190506105ce60008301846105aa565b92915050565b600080fd5b6105e2816105a0565b81146105ed57600080fd5b50565b6000813590506105ff816105d9565b92915050565b60006020828403121561061b5761061a6105d4565b5b6000610629848285016105f0565b91505092915050565b600081519050919050565b600082825260208201905092915050565b60005b8381101561066c578082015181840152602081019050610651565b60008484015250505050565b6000601f19601f8301169050919050565b600061069482610632565b61069e818561063d565b93506106ae81856020860161064e565b6106b781610678565b840191505092915050565b600060208201905081810360008301526106dc8184610689565b90509291505056fea264697066735822122018f933c8fd2d6059469fcaea93fc9fbc37de04c21c55b5b921345dda10563de764736f6c63430008110033",
			"opcodes": "PUSH1 0x80 PUSH1 0x40 MSTORE CALLVALUE DUP1 ISZERO PUSH2 0x10 JUMPI PUSH1 0x0 DUP1 REVERT JUMPDEST POP PUSH2 0x59 PUSH1 0x40 MLOAD DUP1 PUSH1 0x40 ADD PUSH1 0x40 MSTORE DUP1 PUSH1 0x1 DUP2 MSTORE PUSH1 0x20 ADD PUSH32 0x4200000000000000000000000000000000000000000000000000000000000000 DUP2 MSTORE POP PUSH2 0xA6 PUSH1 0x20 SHL PUSH2 0x405 OR PUSH1 0x20 SHR JUMP JUMPDEST PUSH2 0xA1 PUSH1 0x40 MLOAD DUP1 PUSH1 0x40 ADD PUSH1 0x40 MSTORE DUP1 PUSH1 0x4 DUP2 MSTORE PUSH1 0x20 ADD PUSH32 0x6D61696E00000000000000000000000000000000000000000000000000000000 DUP2 MSTORE POP PUSH2 0xA6 PUSH1 0x20 SHL PUSH2 0x405 OR PUSH1 0x20 SHR JUMP JUMPDEST PUSH2 0x220 JUMP JUMPDEST PUSH2 0x142 DUP2 PUSH1 0x40 MLOAD PUSH1 0x24 ADD PUSH2 0xBA SWAP2 SWAP1 PUSH2 0x1FE JUMP JUMPDEST PUSH1 0x40 MLOAD PUSH1 0x20 DUP2 DUP4 SUB SUB DUP2 MSTORE SWAP1 PUSH1 0x40 MSTORE PUSH32 0x41304FAC00000000000000000000000000000000000000000000000000000000 PUSH28 0xFFFFFFFFFFFFFFFFFFFFFFFFFFFFFFFFFFFFFFFFFFFFFFFFFFFFFFFF NOT AND PUSH1 0x20 DUP3 ADD DUP1 MLOAD PUSH28 0xFFFFFFFFFFFFFFFFFFFFFFFFFFFFFFFFFFFFFFFFFFFFFFFFFFFFFFFF DUP4 DUP2 DUP4 AND OR DUP4 MSTORE POP POP POP POP PUSH2 0x145 PUSH1 0x20 SHL PUSH1 0x20 SHR JUMP JUMPDEST POP JUMP JUMPDEST PUSH1 0x0 DUP2 MLOAD SWAP1 POP PUSH1 0x0 PUSH11 0x636F6E736F6C652E6C6F67 SWAP1 POP PUSH1 0x20 DUP4 ADD PUSH1 0x0 DUP1 DUP5 DUP4 DUP6 GAS STATICCALL POP POP POP POP POP JUMP JUMPDEST PUSH1 0x0 DUP2 MLOAD SWAP1 POP SWAP2 SWAP1 POP JUMP JUMPDEST PUSH1 0x0 DUP3 DUP3 MSTORE PUSH1 0x20 DUP3 ADD SWAP1 POP SWAP3 SWAP2 POP POP JUMP JUMPDEST PUSH1 0x0 JUMPDEST DUP4 DUP2 LT ISZERO PUSH2 0x1A8 JUMPI DUP1 DUP3 ADD MLOAD DUP2 DUP5 ADD MSTORE PUSH1 0x20 DUP2 ADD SWAP1 POP PUSH2 0x18D JUMP JUMPDEST PUSH1 0x0 DUP5 DUP5 ADD MSTORE POP POP POP POP JUMP JUMPDEST PUSH1 0x0 PUSH1 0x1F NOT PUSH1 0x1F DUP4 ADD AND SWAP1 POP SWAP2 SWAP1 POP JUMP JUMPDEST PUSH1 0x0 PUSH2 0x1D0 DUP3 PUSH2 0x16E JUMP JUMPDEST PUSH2 0x1DA DUP2 DUP6 PUSH2 0x179 JUMP JUMPDEST SWAP4 POP PUSH2 0x1EA DUP2 DUP6 PUSH1 0x20 DUP7 ADD PUSH2 0x18A JUMP JUMPDEST PUSH2 0x1F3 DUP2 PUSH2 0x1B4 JUMP JUMPDEST DUP5 ADD SWAP2 POP POP SWAP3 SWAP2 POP POP JUMP JUMPDEST PUSH1 0x0 PUSH1 0x20 DUP3 ADD SWAP1 POP DUP2 DUP2 SUB PUSH1 0x0 DUP4 ADD MSTORE PUSH2 0x218 DUP2 DUP5 PUSH2 0x1C5 JUMP JUMPDEST SWAP1 POP SWAP3 SWAP2 POP POP JUMP JUMPDEST PUSH2 0x71A DUP1 PUSH2 0x22F PUSH1 0x0 CODECOPY PUSH1 0x0 RETURN INVALID PUSH1 0x80 PUSH1 0x40 MSTORE CALLVALUE DUP1 ISZERO PUSH2 0x10 JUMPI PUSH1 0x0 DUP1 REVERT JUMPDEST POP PUSH1 0x4 CALLDATASIZE LT PUSH2 0xA9 JUMPI PUSH1 0x0 CALLDATALOAD PUSH1 0xE0 SHR DUP1 PUSH4 0x82465246 GT PUSH2 0x71 JUMPI DUP1 PUSH4 0x82465246 EQ PUSH2 0x106 JUMPI DUP1 PUSH4 0x8EF1AE5A EQ PUSH2 0x110 JUMPI DUP1 PUSH4 0xB0D0C170 EQ PUSH2 0x11A JUMPI DUP1 PUSH4 0xE2693200 EQ PUSH2 0x124 JUMPI DUP1 PUSH4 0xE7D1AB64 EQ PUSH2 0x12E JUMPI DUP1 PUSH4 0xFA55361D EQ PUSH2 0x15E JUMPI PUSH2 0xA9 JUMP JUMPDEST DUP1 PUSH4 0x107548BB EQ PUSH2 0xAE JUMPI DUP1 PUSH4 0x28883CA7 EQ PUSH2 0xCC JUMPI DUP1 PUSH4 0x480A0654 EQ PUSH2 0xE8 JUMPI DUP1 PUSH4 0x72794B4C EQ PUSH2 0xF2 JUMPI DUP1 PUSH4 0x81BE0A20 EQ PUSH2 0xFC JUMPI JUMPDEST PUSH1 0x0 DUP1 REVERT JUMPDEST PUSH2 0xB6 PUSH2 0x168 JUMP JUMPDEST PUSH1 0x40 MLOAD PUSH2 0xC3 SWAP2 SWAP1 PUSH2 0x5B9 JUMP JUMPDEST PUSH1 0x40 MLOAD DUP1 SWAP2 SUB SWAP1 RETURN JUMPDEST PUSH2 0xE6 PUSH1 0x4 DUP1 CALLDATASIZE SUB DUP2 ADD SWAP1 PUSH2 0xE1 SWAP2 SWAP1 PUSH2 0x605 JUMP JUMPDEST PUSH2 0x1AF JUMP JUMPDEST STOP JUMPDEST PUSH2 0xF0 PUSH2 0x1F9 JUMP JUMPDEST STOP JUMPDEST PUSH2 0xFA PUSH2 0x239 JUMP JUMPDEST STOP JUMPDEST PUSH2 0x104 PUSH2 0x279 JUMP JUMPDEST STOP JUMPDEST PUSH2 0x10E PUSH2 0x2B9 JUMP JUMPDEST STOP JUMPDEST PUSH2 0x118 PUSH2 0x2F9 JUMP JUMPDEST STOP JUMPDEST PUSH2 0x122 PUSH2 0x30F JUMP JUMPDEST STOP JUMPDEST PUSH2 0x12C PUSH2 0x34F JUMP JUMPDEST STOP JUMPDEST PUSH2 0x148 PUSH1 0x4 DUP1 CALLDATASIZE SUB DUP2 ADD SWAP1 PUSH2 0x143 SWAP2 SWAP1 PUSH2 0x605 JUMP JUMPDEST PUSH2 0x38F JUMP JUMPDEST PUSH1 0x40 MLOAD PUSH2 0x155 SWAP2 SWAP1 PUSH2 0x5B9 JUMP JUMPDEST PUSH1 0x40 MLOAD DUP1 SWAP2 SUB SWAP1 RETURN JUMPDEST PUSH2 0x166 PUSH2 0x3D7 JUMP JUMPDEST STOP JUMPDEST PUSH1 0x0 PUSH2 0x1A8 PUSH1 0x40 MLOAD DUP1 PUSH1 0x40 ADD PUSH1 0x40 MSTORE DUP1 PUSH1 0xE DUP2 MSTORE PUSH1 0x20 ADD PUSH32 0x415F706F6C796D6F72706869736D000000000000000000000000000000000000 DUP2 MSTORE POP PUSH2 0x405 JUMP JUMPDEST PUSH1 0x0 SWAP1 POP SWAP1 JUMP JUMPDEST PUSH2 0x1ED PUSH1 0x40 MLOAD DUP1 PUSH1 0x40 ADD PUSH1 0x40 MSTORE DUP1 PUSH1 0x7 DUP2 MSTORE PUSH1 0x20 ADD PUSH32 0x7375706572204200000000000000000000000000000000000000000000000000 DUP2 MSTORE POP PUSH2 0x405 JUMP JUMPDEST PUSH2 0x1F6 DUP2 PUSH2 0x49E JUMP JUMPDEST POP JUMP JUMPDEST PUSH2 0x237 PUSH1 0x40 MLOAD DUP1 PUSH1 0x40 ADD PUSH1 0x40 MSTORE DUP1 PUSH1 0xB DUP2 MSTORE PUSH1 0x20 ADD PUSH32 0x696E746572666163655F42000000000000000000000000000000000000000000 DUP2 MSTORE POP PUSH2 0x405 JUMP JUMPDEST JUMP JUMPDEST PUSH2 0x277 PUSH1 0x40 MLOAD DUP1 PUSH1 0x40 ADD PUSH1 0x40 MSTORE DUP1 PUSH1 0xA DUP2 MSTORE PUSH1 0x20 ADD PUSH32 0x6D61696E5F737570657200000000000000000000000000000000000000000000 DUP2 MSTORE POP PUSH2 0x405 JUMP JUMPDEST JUMP JUMPDEST PUSH2 0x2B7 PUSH1 0x40 MLOAD DUP1 PUSH1 0x40 ADD PUSH1 0x40 MSTORE DUP1 PUSH1 0x9 DUP2 MSTORE PUSH1 0x20 ADD PUSH32 0x6F72766572726964650000000000000000000000000000000000000000000000 DUP2 MSTORE POP PUSH2 0x405 JUMP JUMPDEST JUMP JUMPDEST PUSH2 0x2F7 PUSH1 0x40 MLOAD DUP1 PUSH1 0x40 ADD PUSH1 0x40 MSTORE DUP1 PUSH1 0xB DUP2 MSTORE PUSH1 0x20 ADD PUSH32 0x696E746572666163655F41000000000000000000000000000000000000000000 DUP2 MSTORE POP PUSH2 0x405 JUMP JUMPDEST JUMP JUMPDEST PUSH2 0x301 PUSH2 0x168 JUMP JUMPDEST POP PUSH2 0x30C PUSH1 0x1 PUSH2 0x38F JUMP JUMPDEST POP JUMP JUMPDEST PUSH2 0x34D PUSH1 0x40 MLOAD DUP1 PUSH1 0x40 ADD PUSH1 0x40 MSTORE DUP1 PUSH1 0x6 DUP2 MSTORE PUSH1 0x20 ADD PUSH32 0x424153455F420000000000000000000000000000000000000000000000000000 DUP2 MSTORE POP PUSH2 0x405 JUMP JUMPDEST JUMP JUMPDEST PUSH2 0x38D PUSH1 0x40 MLOAD DUP1 PUSH1 0x40 ADD PUSH1 0x40 MSTORE DUP1 PUSH1 0xB DUP2 MSTORE PUSH1 0x20 ADD PUSH32 0x696E746572666163655F43000000000000000000000000000000000000000000 DUP2 MSTORE POP PUSH2 0x405 JUMP JUMPDEST JUMP JUMPDEST PUSH1 0x0 PUSH2 0x3CF PUSH1 0x40 MLOAD DUP1 PUSH1 0x40 ADD PUSH1 0x40 MSTORE DUP1 PUSH1 0xE DUP2 MSTORE PUSH1 0x20 ADD PUSH32 0x425F706F6C796D6F72706869736D000000000000000000000000000000000000 DUP2 MSTORE POP PUSH2 0x405 JUMP JUMPDEST DUP2 SWAP1 POP SWAP2 SWAP1 POP JUMP JUMPDEST PUSH2 0x3DF PUSH2 0x239 JUMP JUMPDEST PUSH2 0x3E7 PUSH2 0x537 JUMP JUMPDEST PUSH2 0x3F1 PUSH1 0x2 PUSH2 0x1AF JUMP JUMPDEST PUSH2 0x3F9 PUSH2 0x537 JUMP JUMPDEST PUSH2 0x403 PUSH1 0x63 PUSH2 0x1AF JUMP JUMPDEST JUMP JUMPDEST PUSH2 0x49B DUP2 PUSH1 0x40 MLOAD PUSH1 0x24 ADD PUSH2 0x419 SWAP2 SWAP1 PUSH2 0x6C2 JUMP JUMPDEST PUSH1 0x40 MLOAD PUSH1 0x20 DUP2 DUP4 SUB SUB DUP2 MSTORE SWAP1 PUSH1 0x40 MSTORE PUSH32 0x41304FAC00000000000000000000000000000000000000000000000000000000 PUSH28 0xFFFFFFFFFFFFFFFFFFFFFFFFFFFFFFFFFFFFFFFFFFFFFFFFFFFFFFFF NOT AND PUSH1 0x20 DUP3 ADD DUP1 MLOAD PUSH28 0xFFFFFFFFFFFFFFFFFFFFFFFFFFFFFFFFFFFFFFFFFFFFFFFFFFFFFFFF DUP4 DUP2 DUP4 AND OR DUP4 MSTORE POP POP POP POP PUSH2 0x577 JUMP JUMPDEST POP JUMP JUMPDEST PUSH2 0x534 DUP2 PUSH1 0x40 MLOAD PUSH1 0x24 ADD PUSH2 0x4B2 SWAP2 SWAP1 PUSH2 0x5B9 JUMP JUMPDEST PUSH1 0x40 MLOAD PUSH1 0x20 DUP2 DUP4 SUB SUB DUP2 MSTORE SWAP1 PUSH1 0x40 MSTORE PUSH32 0xF82C50F100000000000000000000000000000000000000000000000000000000 PUSH28 0xFFFFFFFFFFFFFFFFFFFFFFFFFFFFFFFFFFFFFFFFFFFFFFFFFFFFFFFF NOT AND PUSH1 0x20 DUP3 ADD DUP1 MLOAD PUSH28 0xFFFFFFFFFFFFFFFFFFFFFFFFFFFFFFFFFFFFFFFFFFFFFFFFFFFFFFFF DUP4 DUP2 DUP4 AND OR DUP4 MSTORE POP POP POP POP PUSH2 0x577 JUMP JUMPDEST POP JUMP JUMPDEST PUSH2 0x575 PUSH1 0x40 MLOAD DUP1 PUSH1 0x40 ADD PUSH1 0x40 MSTORE DUP1 PUSH1 0x5 DUP2 MSTORE PUSH1 0x20 ADD PUSH32 0x7375706572000000000000000000000000000000000000000000000000000000 DUP2 MSTORE POP PUSH2 0x405 JUMP JUMPDEST JUMP JUMPDEST PUSH1 0x0 DUP2 MLOAD SWAP1 POP PUSH1 0x0 PUSH11 0x636F6E736F6C652E6C6F67 SWAP1 POP PUSH1 0x20 DUP4 ADD PUSH1 0x0 DUP1 DUP5 DUP4 DUP6 GAS STATICCALL POP POP POP POP POP JUMP JUMPDEST PUSH1 0x0 DUP2 SWAP1 POP SWAP2 SWAP1 POP JUMP JUMPDEST PUSH2 0x5B3 DUP2 PUSH2 0x5A0 JUMP JUMPDEST DUP3 MSTORE POP POP JUMP JUMPDEST PUSH1 0x0 PUSH1 0x20 DUP3 ADD SWAP1 POP PUSH2 0x5CE PUSH1 0x0 DUP4 ADD DUP5 PUSH2 0x5AA JUMP JUMPDEST SWAP3 SWAP2 POP POP JUMP JUMPDEST PUSH1 0x0 DUP1 REVERT JUMPDEST PUSH2 0x5E2 DUP2 PUSH2 0x5A0 JUMP JUMPDEST DUP2 EQ PUSH2 0x5ED JUMPI PUSH1 0x0 DUP1 REVERT JUMPDEST POP JUMP JUMPDEST PUSH1 0x0 DUP2 CALLDATALOAD SWAP1 POP PUSH2 0x5FF DUP2 PUSH2 0x5D9 JUMP JUMPDEST SWAP3 SWAP2 POP POP JUMP JUMPDEST PUSH1 0x0 PUSH1 0x20 DUP3 DUP5 SUB SLT ISZERO PUSH2 0x61B JUMPI PUSH2 0x61A PUSH2 0x5D4 JUMP JUMPDEST JUMPDEST PUSH1 0x0 PUSH2 0x629 DUP5 DUP3 DUP6 ADD PUSH2 0x5F0 JUMP JUMPDEST SWAP2 POP POP SWAP3 SWAP2 POP POP JUMP JUMPDEST PUSH1 0x0 DUP2 MLOAD SWAP1 POP SWAP2 SWAP1 POP JUMP JUMPDEST PUSH1 0x0 DUP3 DUP3 MSTORE PUSH1 0x20 DUP3 ADD SWAP1 POP SWAP3 SWAP2 POP POP JUMP JUMPDEST PUSH1 0x0 JUMPDEST DUP4 DUP2 LT ISZERO PUSH2 0x66C JUMPI DUP1 DUP3 ADD MLOAD DUP2 DUP5 ADD MSTORE PUSH1 0x20 DUP2 ADD SWAP1 POP PUSH2 0x651 JUMP JUMPDEST PUSH1 0x0 DUP5 DUP5 ADD MSTORE POP POP POP POP JUMP JUMPDEST PUSH1 0x0 PUSH1 0x1F NOT PUSH1 0x1F DUP4 ADD AND SWAP1 POP SWAP2 SWAP1 POP JUMP JUMPDEST PUSH1 0x0 PUSH2 0x694 DUP3 PUSH2 0x632 JUMP JUMPDEST PUSH2 0x69E DUP2 DUP6 PUSH2 0x63D JUMP JUMPDEST SWAP4 POP PUSH2 0x6AE DUP2 DUP6 PUSH1 0x20 DUP7 ADD PUSH2 0x64E JUMP JUMPDEST PUSH2 0x6B7 DUP2 PUSH2 0x678 JUMP JUMPDEST DUP5 ADD SWAP2 POP POP SWAP3 SWAP2 POP POP JUMP JUMPDEST PUSH1 0x0 PUSH1 0x20 DUP3 ADD SWAP1 POP DUP2 DUP2 SUB PUSH1 0x0 DUP4 ADD MSTORE PUSH2 0x6DC DUP2 DUP5 PUSH2 0x689 JUMP JUMPDEST SWAP1 POP SWAP3 SWAP2 POP POP JUMP INVALID LOG2 PUSH5 0x6970667358 0x22 SLT KECCAK256 XOR 0xF9 CALLER 0xC8 REVERT 0x2D PUSH1 0x59 CHAINID SWAP16 0xCA 0xEA SWAP4 0xFC SWAP16 0xBC CALLDATACOPY 0xDE DIV 0xC2 SHR SSTORE 0xB5 0xB9 0x21 CALLVALUE 0x5D 0xDA LT JUMP RETURNDATASIZE 0xE7 PUSH5 0x736F6C6343 STOP ADDMOD GT STOP CALLER "
		},
		"gasEstimates": {
			"creation": {
				"codeDepositCost": "363600",
				"executionCost": "infinite",
				"totalCost": "infinite"
			},
			"external": {
				"main_polymorphism()": "infinite",
				"testB_Base()": "infinite",
				"test_interface_A()": "infinite",
				"test_interface_B()": "infinite",
				"test_interface_C()": "infinite",
				"test_override()": "infinite",
				"test_polymorphism()": "infinite",
				"test_polymorphism(uint256)": "infinite",
				"test_run_super()": "infinite",
				"test_super()": "infinite",
				"test_super(uint256)": "infinite"
			}
		},
		"methodIdentifiers": {
			"main_polymorphism()": "8ef1ae5a",
			"testB_Base()": "b0d0c170",
			"test_interface_A()": "82465246",
			"test_interface_B()": "480a0654",
			"test_interface_C()": "e2693200",
			"test_override()": "81be0a20",
			"test_polymorphism()": "107548bb",
			"test_polymorphism(uint256)": "e7d1ab64",
			"test_run_super()": "fa55361d",
			"test_super()": "72794b4c",
			"test_super(uint256)": "28883ca7"
		}
	},
	"abi": [
		{
			"inputs": [],
			"stateMutability": "nonpayable",
			"type": "constructor"
		},
		{
			"inputs": [],
			"name": "main_polymorphism",
			"outputs": [],
			"stateMutability": "view",
			"type": "function"
		},
		{
			"inputs": [],
			"name": "testB_Base",
			"outputs": [],
			"stateMutability": "view",
			"type": "function"
		},
		{
			"inputs": [],
			"name": "test_interface_A",
			"outputs": [],
			"stateMutability": "view",
			"type": "function"
		},
		{
			"inputs": [],
			"name": "test_interface_B",
			"outputs": [],
			"stateMutability": "view",
			"type": "function"
		},
		{
			"inputs": [],
			"name": "test_interface_C",
			"outputs": [],
			"stateMutability": "view",
			"type": "function"
		},
		{
			"inputs": [],
			"name": "test_override",
			"outputs": [],
			"stateMutability": "view",
			"type": "function"
		},
		{
			"inputs": [],
			"name": "test_polymorphism",
			"outputs": [
				{
					"internalType": "uint256",
					"name": "",
					"type": "uint256"
				}
			],
			"stateMutability": "view",
			"type": "function"
		},
		{
			"inputs": [
				{
					"internalType": "uint256",
					"name": "_int",
					"type": "uint256"
				}
			],
			"name": "test_polymorphism",
			"outputs": [
				{
					"internalType": "uint256",
					"name": "",
					"type": "uint256"
				}
			],
			"stateMutability": "view",
			"type": "function"
		},
		{
			"inputs": [],
			"name": "test_run_super",
			"outputs": [],
			"stateMutability": "view",
			"type": "function"
		},
		{
			"inputs": [
				{
					"internalType": "uint256",
					"name": "_int",
					"type": "uint256"
				}
			],
			"name": "test_super",
			"outputs": [],
			"stateMutability": "view",
			"type": "function"
		},
		{
			"inputs": [],
			"name": "test_super",
			"outputs": [],
			"stateMutability": "view",
			"type": "function"
		}
	]
}