{
	"data": {
		"bytecode": {
			"linkReferences": {},
			"object": "608060405234801561001057600080fd5b506100596040518060400160405280600181526020017f42000000000000000000000000000000000000000000000000000000000000008152506100a660201b6104751760201c565b6100a16040518060400160405280600481526020017f6d61696e000000000000000000000000000000000000000000000000000000008152506100a660201b6104751760201c565b610220565b610142816040516024016100ba91906101fe565b6040516020818303038152906040527f41304fac000000000000000000000000000000000000000000000000000000007bffffffffffffffffffffffffffffffffffffffffffffffffffffffff19166020820180517bffffffffffffffffffffffffffffffffffffffffffffffffffffffff838183161783525050505061014560201b60201c565b50565b60008151905060006a636f6e736f6c652e6c6f679050602083016000808483855afa5050505050565b600081519050919050565b600082825260208201905092915050565b60005b838110156101a857808201518184015260208101905061018d565b60008484015250505050565b6000601f19601f8301169050919050565b60006101d08261016e565b6101da8185610179565b93506101ea81856020860161018a565b6101f3816101b4565b840191505092915050565b6000602082019050818103600083015261021881846101c5565b905092915050565b61078a8061022f6000396000f3fe608060405234801561001057600080fd5b50600436106100b45760003560e01c80638246524611610071578063824652461461012f5780638ef1ae5a14610139578063b0d0c17014610143578063e26932001461014d578063e7d1ab6414610157578063fa55361d14610187576100b4565b8063107548bb146100b957806312781c69146100d757806328883ca7146100f5578063480a06541461011157806372794b4c1461011b57806381be0a2014610125575b600080fd5b6100c1610191565b6040516100ce9190610629565b60405180910390f35b6100df6101d8565b6040516100ec9190610629565b60405180910390f35b61010f600480360381019061010a9190610675565b61021f565b005b610119610269565b005b6101236102a9565b005b61012d6102e9565b005b610137610329565b005b610141610369565b005b61014b61037f565b005b6101556103bf565b005b610171600480360381019061016c9190610675565b6103ff565b60405161017e9190610629565b60405180910390f35b61018f610447565b005b60006101d16040518060400160405280600e81526020017f415f706f6c796d6f72706869736d000000000000000000000000000000000000815250610475565b6000905090565b60006102186040518060400160405280600d81526020017f746573745f616273747261637400000000000000000000000000000000000000815250610475565b6000905090565b61025d6040518060400160405280600781526020017f7375706572204200000000000000000000000000000000000000000000000000815250610475565b6102668161050e565b50565b6102a76040518060400160405280600b81526020017f696e746572666163655f42000000000000000000000000000000000000000000815250610475565b565b6102e76040518060400160405280600a81526020017f6d61696e5f737570657200000000000000000000000000000000000000000000815250610475565b565b6103276040518060400160405280600981526020017f6f72766572726964650000000000000000000000000000000000000000000000815250610475565b565b6103676040518060400160405280600b81526020017f696e746572666163655f41000000000000000000000000000000000000000000815250610475565b565b610371610191565b5061037c60016103ff565b50565b6103bd6040518060400160405280600681526020017f424153455f420000000000000000000000000000000000000000000000000000815250610475565b565b6103fd6040518060400160405280600b81526020017f696e746572666163655f43000000000000000000000000000000000000000000815250610475565b565b600061043f6040518060400160405280600e81526020017f425f706f6c796d6f72706869736d000000000000000000000000000000000000815250610475565b819050919050565b61044f6102a9565b6104576105a7565b610461600261021f565b6104696105a7565b610473606361021f565b565b61050b816040516024016104899190610732565b6040516020818303038152906040527f41304fac000000000000000000000000000000000000000000000000000000007bffffffffffffffffffffffffffffffffffffffffffffffffffffffff19166020820180517bffffffffffffffffffffffffffffffffffffffffffffffffffffffff83818316178352505050506105e7565b50565b6105a4816040516024016105229190610629565b6040516020818303038152906040527ff82c50f1000000000000000000000000000000000000000000000000000000007bffffffffffffffffffffffffffffffffffffffffffffffffffffffff19166020820180517bffffffffffffffffffffffffffffffffffffffffffffffffffffffff83818316178352505050506105e7565b50565b6105e56040518060400160405280600581526020017f7375706572000000000000000000000000000000000000000000000000000000815250610475565b565b60008151905060006a636f6e736f6c652e6c6f679050602083016000808483855afa5050505050565b6000819050919050565b61062381610610565b82525050565b600060208201905061063e600083018461061a565b92915050565b600080fd5b61065281610610565b811461065d57600080fd5b50565b60008135905061066f81610649565b92915050565b60006020828403121561068b5761068a610644565b5b600061069984828501610660565b91505092915050565b600081519050919050565b600082825260208201905092915050565b60005b838110156106dc5780820151818401526020810190506106c1565b60008484015250505050565b6000601f19601f8301169050919050565b6000610704826106a2565b61070e81856106ad565b935061071e8185602086016106be565b610727816106e8565b840191505092915050565b6000602082019050818103600083015261074c81846106f9565b90509291505056fea2646970667358221220dae35f860bdc1136b5cf99bfe947a36d3ac3b174fa2c7c09d259b59078a2f05764736f6c63430008110033",
			"opcodes": "PUSH1 0x80 PUSH1 0x40 MSTORE CALLVALUE DUP1 ISZERO PUSH2 0x10 JUMPI PUSH1 0x0 DUP1 REVERT JUMPDEST POP PUSH2 0x59 PUSH1 0x40 MLOAD DUP1 PUSH1 0x40 ADD PUSH1 0x40 MSTORE DUP1 PUSH1 0x1 DUP2 MSTORE PUSH1 0x20 ADD PUSH32 0x4200000000000000000000000000000000000000000000000000000000000000 DUP2 MSTORE POP PUSH2 0xA6 PUSH1 0x20 SHL PUSH2 0x475 OR PUSH1 0x20 SHR JUMP JUMPDEST PUSH2 0xA1 PUSH1 0x40 MLOAD DUP1 PUSH1 0x40 ADD PUSH1 0x40 MSTORE DUP1 PUSH1 0x4 DUP2 MSTORE PUSH1 0x20 ADD PUSH32 0x6D61696E00000000000000000000000000000000000000000000000000000000 DUP2 MSTORE POP PUSH2 0xA6 PUSH1 0x20 SHL PUSH2 0x475 OR PUSH1 0x20 SHR JUMP JUMPDEST PUSH2 0x220 JUMP JUMPDEST PUSH2 0x142 DUP2 PUSH1 0x40 MLOAD PUSH1 0x24 ADD PUSH2 0xBA SWAP2 SWAP1 PUSH2 0x1FE JUMP JUMPDEST PUSH1 0x40 MLOAD PUSH1 0x20 DUP2 DUP4 SUB SUB DUP2 MSTORE SWAP1 PUSH1 0x40 MSTORE PUSH32 0x41304FAC00000000000000000000000000000000000000000000000000000000 PUSH28 0xFFFFFFFFFFFFFFFFFFFFFFFFFFFFFFFFFFFFFFFFFFFFFFFFFFFFFFFF NOT AND PUSH1 0x20 DUP3 ADD DUP1 MLOAD PUSH28 0xFFFFFFFFFFFFFFFFFFFFFFFFFFFFFFFFFFFFFFFFFFFFFFFFFFFFFFFF DUP4 DUP2 DUP4 AND OR DUP4 MSTORE POP POP POP POP PUSH2 0x145 PUSH1 0x20 SHL PUSH1 0x20 SHR JUMP JUMPDEST POP JUMP JUMPDEST PUSH1 0x0 DUP2 MLOAD SWAP1 POP PUSH1 0x0 PUSH11 0x636F6E736F6C652E6C6F67 SWAP1 POP PUSH1 0x20 DUP4 ADD PUSH1 0x0 DUP1 DUP5 DUP4 DUP6 GAS STATICCALL POP POP POP POP POP JUMP JUMPDEST PUSH1 0x0 DUP2 MLOAD SWAP1 POP SWAP2 SWAP1 POP JUMP JUMPDEST PUSH1 0x0 DUP3 DUP3 MSTORE PUSH1 0x20 DUP3 ADD SWAP1 POP SWAP3 SWAP2 POP POP JUMP JUMPDEST PUSH1 0x0 JUMPDEST DUP4 DUP2 LT ISZERO PUSH2 0x1A8 JUMPI DUP1 DUP3 ADD MLOAD DUP2 DUP5 ADD MSTORE PUSH1 0x20 DUP2 ADD SWAP1 POP PUSH2 0x18D JUMP JUMPDEST PUSH1 0x0 DUP5 DUP5 ADD MSTORE POP POP POP POP JUMP JUMPDEST PUSH1 0x0 PUSH1 0x1F NOT PUSH1 0x1F DUP4 ADD AND SWAP1 POP SWAP2 SWAP1 POP JUMP JUMPDEST PUSH1 0x0 PUSH2 0x1D0 DUP3 PUSH2 0x16E JUMP JUMPDEST PUSH2 0x1DA DUP2 DUP6 PUSH2 0x179 JUMP JUMPDEST SWAP4 POP PUSH2 0x1EA DUP2 DUP6 PUSH1 0x20 DUP7 ADD PUSH2 0x18A JUMP JUMPDEST PUSH2 0x1F3 DUP2 PUSH2 0x1B4 JUMP JUMPDEST DUP5 ADD SWAP2 POP POP SWAP3 SWAP2 POP POP JUMP JUMPDEST PUSH1 0x0 PUSH1 0x20 DUP3 ADD SWAP1 POP DUP2 DUP2 SUB PUSH1 0x0 DUP4 ADD MSTORE PUSH2 0x218 DUP2 DUP5 PUSH2 0x1C5 JUMP JUMPDEST SWAP1 POP SWAP3 SWAP2 POP POP JUMP JUMPDEST PUSH2 0x78A DUP1 PUSH2 0x22F PUSH1 0x0 CODECOPY PUSH1 0x0 RETURN INVALID PUSH1 0x80 PUSH1 0x40 MSTORE CALLVALUE DUP1 ISZERO PUSH2 0x10 JUMPI PUSH1 0x0 DUP1 REVERT JUMPDEST POP PUSH1 0x4 CALLDATASIZE LT PUSH2 0xB4 JUMPI PUSH1 0x0 CALLDATALOAD PUSH1 0xE0 SHR DUP1 PUSH4 0x82465246 GT PUSH2 0x71 JUMPI DUP1 PUSH4 0x82465246 EQ PUSH2 0x12F JUMPI DUP1 PUSH4 0x8EF1AE5A EQ PUSH2 0x139 JUMPI DUP1 PUSH4 0xB0D0C170 EQ PUSH2 0x143 JUMPI DUP1 PUSH4 0xE2693200 EQ PUSH2 0x14D JUMPI DUP1 PUSH4 0xE7D1AB64 EQ PUSH2 0x157 JUMPI DUP1 PUSH4 0xFA55361D EQ PUSH2 0x187 JUMPI PUSH2 0xB4 JUMP JUMPDEST DUP1 PUSH4 0x107548BB EQ PUSH2 0xB9 JUMPI DUP1 PUSH4 0x12781C69 EQ PUSH2 0xD7 JUMPI DUP1 PUSH4 0x28883CA7 EQ PUSH2 0xF5 JUMPI DUP1 PUSH4 0x480A0654 EQ PUSH2 0x111 JUMPI DUP1 PUSH4 0x72794B4C EQ PUSH2 0x11B JUMPI DUP1 PUSH4 0x81BE0A20 EQ PUSH2 0x125 JUMPI JUMPDEST PUSH1 0x0 DUP1 REVERT JUMPDEST PUSH2 0xC1 PUSH2 0x191 JUMP JUMPDEST PUSH1 0x40 MLOAD PUSH2 0xCE SWAP2 SWAP1 PUSH2 0x629 JUMP JUMPDEST PUSH1 0x40 MLOAD DUP1 SWAP2 SUB SWAP1 RETURN JUMPDEST PUSH2 0xDF PUSH2 0x1D8 JUMP JUMPDEST PUSH1 0x40 MLOAD PUSH2 0xEC SWAP2 SWAP1 PUSH2 0x629 JUMP JUMPDEST PUSH1 0x40 MLOAD DUP1 SWAP2 SUB SWAP1 RETURN JUMPDEST PUSH2 0x10F PUSH1 0x4 DUP1 CALLDATASIZE SUB DUP2 ADD SWAP1 PUSH2 0x10A SWAP2 SWAP1 PUSH2 0x675 JUMP JUMPDEST PUSH2 0x21F JUMP JUMPDEST STOP JUMPDEST PUSH2 0x119 PUSH2 0x269 JUMP JUMPDEST STOP JUMPDEST PUSH2 0x123 PUSH2 0x2A9 JUMP JUMPDEST STOP JUMPDEST PUSH2 0x12D PUSH2 0x2E9 JUMP JUMPDEST STOP JUMPDEST PUSH2 0x137 PUSH2 0x329 JUMP JUMPDEST STOP JUMPDEST PUSH2 0x141 PUSH2 0x369 JUMP JUMPDEST STOP JUMPDEST PUSH2 0x14B PUSH2 0x37F JUMP JUMPDEST STOP JUMPDEST PUSH2 0x155 PUSH2 0x3BF JUMP JUMPDEST STOP JUMPDEST PUSH2 0x171 PUSH1 0x4 DUP1 CALLDATASIZE SUB DUP2 ADD SWAP1 PUSH2 0x16C SWAP2 SWAP1 PUSH2 0x675 JUMP JUMPDEST PUSH2 0x3FF JUMP JUMPDEST PUSH1 0x40 MLOAD PUSH2 0x17E SWAP2 SWAP1 PUSH2 0x629 JUMP JUMPDEST PUSH1 0x40 MLOAD DUP1 SWAP2 SUB SWAP1 RETURN JUMPDEST PUSH2 0x18F PUSH2 0x447 JUMP JUMPDEST STOP JUMPDEST PUSH1 0x0 PUSH2 0x1D1 PUSH1 0x40 MLOAD DUP1 PUSH1 0x40 ADD PUSH1 0x40 MSTORE DUP1 PUSH1 0xE DUP2 MSTORE PUSH1 0x20 ADD PUSH32 0x415F706F6C796D6F72706869736D000000000000000000000000000000000000 DUP2 MSTORE POP PUSH2 0x475 JUMP JUMPDEST PUSH1 0x0 SWAP1 POP SWAP1 JUMP JUMPDEST PUSH1 0x0 PUSH2 0x218 PUSH1 0x40 MLOAD DUP1 PUSH1 0x40 ADD PUSH1 0x40 MSTORE DUP1 PUSH1 0xD DUP2 MSTORE PUSH1 0x20 ADD PUSH32 0x746573745F616273747261637400000000000000000000000000000000000000 DUP2 MSTORE POP PUSH2 0x475 JUMP JUMPDEST PUSH1 0x0 SWAP1 POP SWAP1 JUMP JUMPDEST PUSH2 0x25D PUSH1 0x40 MLOAD DUP1 PUSH1 0x40 ADD PUSH1 0x40 MSTORE DUP1 PUSH1 0x7 DUP2 MSTORE PUSH1 0x20 ADD PUSH32 0x7375706572204200000000000000000000000000000000000000000000000000 DUP2 MSTORE POP PUSH2 0x475 JUMP JUMPDEST PUSH2 0x266 DUP2 PUSH2 0x50E JUMP JUMPDEST POP JUMP JUMPDEST PUSH2 0x2A7 PUSH1 0x40 MLOAD DUP1 PUSH1 0x40 ADD PUSH1 0x40 MSTORE DUP1 PUSH1 0xB DUP2 MSTORE PUSH1 0x20 ADD PUSH32 0x696E746572666163655F42000000000000000000000000000000000000000000 DUP2 MSTORE POP PUSH2 0x475 JUMP JUMPDEST JUMP JUMPDEST PUSH2 0x2E7 PUSH1 0x40 MLOAD DUP1 PUSH1 0x40 ADD PUSH1 0x40 MSTORE DUP1 PUSH1 0xA DUP2 MSTORE PUSH1 0x20 ADD PUSH32 0x6D61696E5F737570657200000000000000000000000000000000000000000000 DUP2 MSTORE POP PUSH2 0x475 JUMP JUMPDEST JUMP JUMPDEST PUSH2 0x327 PUSH1 0x40 MLOAD DUP1 PUSH1 0x40 ADD PUSH1 0x40 MSTORE DUP1 PUSH1 0x9 DUP2 MSTORE PUSH1 0x20 ADD PUSH32 0x6F72766572726964650000000000000000000000000000000000000000000000 DUP2 MSTORE POP PUSH2 0x475 JUMP JUMPDEST JUMP JUMPDEST PUSH2 0x367 PUSH1 0x40 MLOAD DUP1 PUSH1 0x40 ADD PUSH1 0x40 MSTORE DUP1 PUSH1 0xB DUP2 MSTORE PUSH1 0x20 ADD PUSH32 0x696E746572666163655F41000000000000000000000000000000000000000000 DUP2 MSTORE POP PUSH2 0x475 JUMP JUMPDEST JUMP JUMPDEST PUSH2 0x371 PUSH2 0x191 JUMP JUMPDEST POP PUSH2 0x37C PUSH1 0x1 PUSH2 0x3FF JUMP JUMPDEST POP JUMP JUMPDEST PUSH2 0x3BD PUSH1 0x40 MLOAD DUP1 PUSH1 0x40 ADD PUSH1 0x40 MSTORE DUP1 PUSH1 0x6 DUP2 MSTORE PUSH1 0x20 ADD PUSH32 0x424153455F420000000000000000000000000000000000000000000000000000 DUP2 MSTORE POP PUSH2 0x475 JUMP JUMPDEST JUMP JUMPDEST PUSH2 0x3FD PUSH1 0x40 MLOAD DUP1 PUSH1 0x40 ADD PUSH1 0x40 MSTORE DUP1 PUSH1 0xB DUP2 MSTORE PUSH1 0x20 ADD PUSH32 0x696E746572666163655F43000000000000000000000000000000000000000000 DUP2 MSTORE POP PUSH2 0x475 JUMP JUMPDEST JUMP JUMPDEST PUSH1 0x0 PUSH2 0x43F PUSH1 0x40 MLOAD DUP1 PUSH1 0x40 ADD PUSH1 0x40 MSTORE DUP1 PUSH1 0xE DUP2 MSTORE PUSH1 0x20 ADD PUSH32 0x425F706F6C796D6F72706869736D000000000000000000000000000000000000 DUP2 MSTORE POP PUSH2 0x475 JUMP JUMPDEST DUP2 SWAP1 POP SWAP2 SWAP1 POP JUMP JUMPDEST PUSH2 0x44F PUSH2 0x2A9 JUMP JUMPDEST PUSH2 0x457 PUSH2 0x5A7 JUMP JUMPDEST PUSH2 0x461 PUSH1 0x2 PUSH2 0x21F JUMP JUMPDEST PUSH2 0x469 PUSH2 0x5A7 JUMP JUMPDEST PUSH2 0x473 PUSH1 0x63 PUSH2 0x21F JUMP JUMPDEST JUMP JUMPDEST PUSH2 0x50B DUP2 PUSH1 0x40 MLOAD PUSH1 0x24 ADD PUSH2 0x489 SWAP2 SWAP1 PUSH2 0x732 JUMP JUMPDEST PUSH1 0x40 MLOAD PUSH1 0x20 DUP2 DUP4 SUB SUB DUP2 MSTORE SWAP1 PUSH1 0x40 MSTORE PUSH32 0x41304FAC00000000000000000000000000000000000000000000000000000000 PUSH28 0xFFFFFFFFFFFFFFFFFFFFFFFFFFFFFFFFFFFFFFFFFFFFFFFFFFFFFFFF NOT AND PUSH1 0x20 DUP3 ADD DUP1 MLOAD PUSH28 0xFFFFFFFFFFFFFFFFFFFFFFFFFFFFFFFFFFFFFFFFFFFFFFFFFFFFFFFF DUP4 DUP2 DUP4 AND OR DUP4 MSTORE POP POP POP POP PUSH2 0x5E7 JUMP JUMPDEST POP JUMP JUMPDEST PUSH2 0x5A4 DUP2 PUSH1 0x40 MLOAD PUSH1 0x24 ADD PUSH2 0x522 SWAP2 SWAP1 PUSH2 0x629 JUMP JUMPDEST PUSH1 0x40 MLOAD PUSH1 0x20 DUP2 DUP4 SUB SUB DUP2 MSTORE SWAP1 PUSH1 0x40 MSTORE PUSH32 0xF82C50F100000000000000000000000000000000000000000000000000000000 PUSH28 0xFFFFFFFFFFFFFFFFFFFFFFFFFFFFFFFFFFFFFFFFFFFFFFFFFFFFFFFF NOT AND PUSH1 0x20 DUP3 ADD DUP1 MLOAD PUSH28 0xFFFFFFFFFFFFFFFFFFFFFFFFFFFFFFFFFFFFFFFFFFFFFFFFFFFFFFFF DUP4 DUP2 DUP4 AND OR DUP4 MSTORE POP POP POP POP PUSH2 0x5E7 JUMP JUMPDEST POP JUMP JUMPDEST PUSH2 0x5E5 PUSH1 0x40 MLOAD DUP1 PUSH1 0x40 ADD PUSH1 0x40 MSTORE DUP1 PUSH1 0x5 DUP2 MSTORE PUSH1 0x20 ADD PUSH32 0x7375706572000000000000000000000000000000000000000000000000000000 DUP2 MSTORE POP PUSH2 0x475 JUMP JUMPDEST JUMP JUMPDEST PUSH1 0x0 DUP2 MLOAD SWAP1 POP PUSH1 0x0 PUSH11 0x636F6E736F6C652E6C6F67 SWAP1 POP PUSH1 0x20 DUP4 ADD PUSH1 0x0 DUP1 DUP5 DUP4 DUP6 GAS STATICCALL POP POP POP POP POP JUMP JUMPDEST PUSH1 0x0 DUP2 SWAP1 POP SWAP2 SWAP1 POP JUMP JUMPDEST PUSH2 0x623 DUP2 PUSH2 0x610 JUMP JUMPDEST DUP3 MSTORE POP POP JUMP JUMPDEST PUSH1 0x0 PUSH1 0x20 DUP3 ADD SWAP1 POP PUSH2 0x63E PUSH1 0x0 DUP4 ADD DUP5 PUSH2 0x61A JUMP JUMPDEST SWAP3 SWAP2 POP POP JUMP JUMPDEST PUSH1 0x0 DUP1 REVERT JUMPDEST PUSH2 0x652 DUP2 PUSH2 0x610 JUMP JUMPDEST DUP2 EQ PUSH2 0x65D JUMPI PUSH1 0x0 DUP1 REVERT JUMPDEST POP JUMP JUMPDEST PUSH1 0x0 DUP2 CALLDATALOAD SWAP1 POP PUSH2 0x66F DUP2 PUSH2 0x649 JUMP JUMPDEST SWAP3 SWAP2 POP POP JUMP JUMPDEST PUSH1 0x0 PUSH1 0x20 DUP3 DUP5 SUB SLT ISZERO PUSH2 0x68B JUMPI PUSH2 0x68A PUSH2 0x644 JUMP JUMPDEST JUMPDEST PUSH1 0x0 PUSH2 0x699 DUP5 DUP3 DUP6 ADD PUSH2 0x660 JUMP JUMPDEST SWAP2 POP POP SWAP3 SWAP2 POP POP JUMP JUMPDEST PUSH1 0x0 DUP2 MLOAD SWAP1 POP SWAP2 SWAP1 POP JUMP JUMPDEST PUSH1 0x0 DUP3 DUP3 MSTORE PUSH1 0x20 DUP3 ADD SWAP1 POP SWAP3 SWAP2 POP POP JUMP JUMPDEST PUSH1 0x0 JUMPDEST DUP4 DUP2 LT ISZERO PUSH2 0x6DC JUMPI DUP1 DUP3 ADD MLOAD DUP2 DUP5 ADD MSTORE PUSH1 0x20 DUP2 ADD SWAP1 POP PUSH2 0x6C1 JUMP JUMPDEST PUSH1 0x0 DUP5 DUP5 ADD MSTORE POP POP POP POP JUMP JUMPDEST PUSH1 0x0 PUSH1 0x1F NOT PUSH1 0x1F DUP4 ADD AND SWAP1 POP SWAP2 SWAP1 POP JUMP JUMPDEST PUSH1 0x0 PUSH2 0x704 DUP3 PUSH2 0x6A2 JUMP JUMPDEST PUSH2 0x70E DUP2 DUP6 PUSH2 0x6AD JUMP JUMPDEST SWAP4 POP PUSH2 0x71E DUP2 DUP6 PUSH1 0x20 DUP7 ADD PUSH2 0x6BE JUMP JUMPDEST PUSH2 0x727 DUP2 PUSH2 0x6E8 JUMP JUMPDEST DUP5 ADD SWAP2 POP POP SWAP3 SWAP2 POP POP JUMP JUMPDEST PUSH1 0x0 PUSH1 0x20 DUP3 ADD SWAP1 POP DUP2 DUP2 SUB PUSH1 0x0 DUP4 ADD MSTORE PUSH2 0x74C DUP2 DUP5 PUSH2 0x6F9 JUMP JUMPDEST SWAP1 POP SWAP3 SWAP2 POP POP JUMP INVALID LOG2 PUSH5 0x6970667358 0x22 SLT KECCAK256 0xDA 0xE3 0x5F DUP7 SIGNEXTEND 0xDC GT CALLDATASIZE 0xB5 0xCF SWAP10 0xBF 0xE9 SELFBALANCE LOG3 PUSH14 0x3AC3B174FA2C7C09D259B59078A2 CREATE JUMPI PUSH5 0x736F6C6343 STOP ADDMOD GT STOP CALLER "
		},
		"gasEstimates": {
			"creation": {
				"codeDepositCost": "386000",
				"executionCost": "infinite",
				"totalCost": "infinite"
			},
			"external": {
				"main_polymorphism()": "infinite",
				"testB_Base()": "infinite",
				"test_abstract()": "infinite",
				"test_interface_A()": "infinite",
				"test_interface_B()": "infinite",
				"test_interface_C()": "infinite",
				"test_override()": "infinite",
				"test_polymorphism()": "infinite",
				"test_polymorphism(uint256)": "infinite",
				"test_run_super()": "infinite",
				"test_super()": "infinite",
				"test_super(uint256)": "infinite"
			}
		},
		"methodIdentifiers": {
			"main_polymorphism()": "8ef1ae5a",
			"testB_Base()": "b0d0c170",
			"test_abstract()": "12781c69",
			"test_interface_A()": "82465246",
			"test_interface_B()": "480a0654",
			"test_interface_C()": "e2693200",
			"test_override()": "81be0a20",
			"test_polymorphism()": "107548bb",
			"test_polymorphism(uint256)": "e7d1ab64",
			"test_run_super()": "fa55361d",
			"test_super()": "72794b4c",
			"test_super(uint256)": "28883ca7"
		}
	},
	"abi": [
		{
			"inputs": [],
			"stateMutability": "nonpayable",
			"type": "constructor"
		},
		{
			"inputs": [],
			"name": "main_polymorphism",
			"outputs": [],
			"stateMutability": "view",
			"type": "function"
		},
		{
			"inputs": [],
			"name": "testB_Base",
			"outputs": [],
			"stateMutability": "view",
			"type": "function"
		},
		{
			"inputs": [],
			"name": "test_abstract",
			"outputs": [
				{
					"internalType": "uint256",
					"name": "",
					"type": "uint256"
				}
			],
			"stateMutability": "view",
			"type": "function"
		},
		{
			"inputs": [],
			"name": "test_interface_A",
			"outputs": [],
			"stateMutability": "view",
			"type": "function"
		},
		{
			"inputs": [],
			"name": "test_interface_B",
			"outputs": [],
			"stateMutability": "view",
			"type": "function"
		},
		{
			"inputs": [],
			"name": "test_interface_C",
			"outputs": [],
			"stateMutability": "view",
			"type": "function"
		},
		{
			"inputs": [],
			"name": "test_override",
			"outputs": [],
			"stateMutability": "view",
			"type": "function"
		},
		{
			"inputs": [],
			"name": "test_polymorphism",
			"outputs": [
				{
					"internalType": "uint256",
					"name": "",
					"type": "uint256"
				}
			],
			"stateMutability": "view",
			"type": "function"
		},
		{
			"inputs": [
				{
					"internalType": "uint256",
					"name": "_int",
					"type": "uint256"
				}
			],
			"name": "test_polymorphism",
			"outputs": [
				{
					"internalType": "uint256",
					"name": "",
					"type": "uint256"
				}
			],
			"stateMutability": "view",
			"type": "function"
		},
		{
			"inputs": [],
			"name": "test_run_super",
			"outputs": [],
			"stateMutability": "view",
			"type": "function"
		},
		{
			"inputs": [
				{
					"internalType": "uint256",
					"name": "_int",
					"type": "uint256"
				}
			],
			"name": "test_super",
			"outputs": [],
			"stateMutability": "view",
			"type": "function"
		},
		{
			"inputs": [],
			"name": "test_super",
			"outputs": [],
			"stateMutability": "view",
			"type": "function"
		}
	]
}