{
	"data": {
		"bytecode": {
			"linkReferences": {},
			"object": "608060405234801561001057600080fd5b5060cd8061001f6000396000f3fe6080604052348015600f57600080fd5b5060043610603c5760003560e01c80632baeceb7146041578063d09de08a146049578063e2a4b2af146051575b600080fd5b6047606d565b005b604f607f565b005b60576091565b6040518082815260200191505060405180910390f35b60016000808282540392505081905550565b60016000808282540192505081905550565b6000548156fea2646970667358221220558d597c926fe9900394c70e2f1b3ec90a34bbb4a9f6c37d98e18a1ce9f96ac064736f6c63430007060033",
			"opcodes": "PUSH1 0x80 PUSH1 0x40 MSTORE CALLVALUE DUP1 ISZERO PUSH2 0x10 JUMPI PUSH1 0x0 DUP1 REVERT JUMPDEST POP PUSH1 0xCD DUP1 PUSH2 0x1F PUSH1 0x0 CODECOPY PUSH1 0x0 RETURN INVALID PUSH1 0x80 PUSH1 0x40 MSTORE CALLVALUE DUP1 ISZERO PUSH1 0xF JUMPI PUSH1 0x0 DUP1 REVERT JUMPDEST POP PUSH1 0x4 CALLDATASIZE LT PUSH1 0x3C JUMPI PUSH1 0x0 CALLDATALOAD PUSH1 0xE0 SHR DUP1 PUSH4 0x2BAECEB7 EQ PUSH1 0x41 JUMPI DUP1 PUSH4 0xD09DE08A EQ PUSH1 0x49 JUMPI DUP1 PUSH4 0xE2A4B2AF EQ PUSH1 0x51 JUMPI JUMPDEST PUSH1 0x0 DUP1 REVERT JUMPDEST PUSH1 0x47 PUSH1 0x6D JUMP JUMPDEST STOP JUMPDEST PUSH1 0x4F PUSH1 0x7F JUMP JUMPDEST STOP JUMPDEST PUSH1 0x57 PUSH1 0x91 JUMP JUMPDEST PUSH1 0x40 MLOAD DUP1 DUP3 DUP2 MSTORE PUSH1 0x20 ADD SWAP2 POP POP PUSH1 0x40 MLOAD DUP1 SWAP2 SUB SWAP1 RETURN JUMPDEST PUSH1 0x1 PUSH1 0x0 DUP1 DUP3 DUP3 SLOAD SUB SWAP3 POP POP DUP2 SWAP1 SSTORE POP JUMP JUMPDEST PUSH1 0x1 PUSH1 0x0 DUP1 DUP3 DUP3 SLOAD ADD SWAP3 POP POP DUP2 SWAP1 SSTORE POP JUMP JUMPDEST PUSH1 0x0 SLOAD DUP2 JUMP INVALID LOG2 PUSH5 0x6970667358 0x22 SLT KECCAK256 SSTORE DUP14 MSIZE PUSH29 0x926FE9900394C70E2F1B3EC90A34BBB4A9F6C37D98E18A1CE9F96AC064 PUSH20 0x6F6C634300070600330000000000000000000000 "
		},
		"gasEstimates": {
			"creation": {
				"codeDepositCost": "41000",
				"executionCost": "93",
				"totalCost": "41093"
			},
			"external": {
				"decrement()": "20955",
				"increment()": "20977",
				"myUint8()": "1027"
			}
		},
		"methodIdentifiers": {
			"decrement()": "2baeceb7",
			"increment()": "d09de08a",
			"myUint8()": "e2a4b2af"
		}
	},
	"abi": [
		{
			"inputs": [],
			"name": "decrement",
			"outputs": [],
			"stateMutability": "nonpayable",
			"type": "function"
		},
		{
			"inputs": [],
			"name": "increment",
			"outputs": [],
			"stateMutability": "nonpayable",
			"type": "function"
		},
		{
			"inputs": [],
			"name": "myUint8",
			"outputs": [
				{
					"internalType": "uint256",
					"name": "",
					"type": "uint256"
				}
			],
			"stateMutability": "view",
			"type": "function"
		}
	]
}